{"contracts/CallOption.sol":{"CallOption":{"abi":[{"inputs":[{"internalType":"uint256","name":"_strike","type":"uint256"},{"internalType":"uint256","name":"_expiration","type":"uint256"},{"internalType":"address","name":"_factory","type":"address"},{"internalType":"address","name":"_collateralManager","type":"address"}],"stateMutability":"nonpayable","type":"constructor"},{"anonymous":false,"inputs":[{"indexed":true,"internalType":"address","name":"seller","type":"address"},{"indexed":false,"internalType":"uint256","name":"index","type":"uint256"}],"name":"OfferDeleted","type":"event"},{"anonymous":false,"inputs":[{"indexed":true,"internalType":"address","name":"seller","type":"address"},{"indexed":false,"internalType":"uint256","name":"amount","type":"uint256"},{"indexed":false,"internalType":"uint256","name":"price","type":"uint256"}],"name":"OfferPlaced","type":"event"},{"inputs":[{"internalType":"uint256","name":"_offerIndex","type":"uint256"}],"name":"buyOffer","outputs":[],"stateMutability":"payable","type":"function"},{"inputs":[],"name":"collateralManager","outputs":[{"internalType":"contract CollateralManager","name":"","type":"address"}],"stateMutability":"view","type":"function"},{"inputs":[{"internalType":"uint256","name":"_offerIndex","type":"uint256"}],"name":"deleteOffer","outputs":[],"stateMutability":"nonpayable","type":"function"},{"inputs":[{"internalType":"uint256","name":"_positionIndex","type":"uint256"}],"name":"exercise","outputs":[],"stateMutability":"nonpayable","type":"function"},{"inputs":[],"name":"expiration","outputs":[{"internalType":"uint256","name":"","type":"uint256"}],"stateMutability":"view","type":"function"},{"inputs":[],"name":"factory","outputs":[{"internalType":"address","name":"","type":"address"}],"stateMutability":"view","type":"function"},{"inputs":[{"internalType":"uint256","name":"","type":"uint256"}],"name":"offers","outputs":[{"internalType":"address","name":"seller","type":"address"},{"internalType":"uint256","name":"amount","type":"uint256"},{"internalType":"uint256","name":"price","type":"uint256"},{"internalType":"uint256","name":"requiredCollateral","type":"uint256"}],"stateMutability":"view","type":"function"},{"inputs":[{"internalType":"uint256","name":"_size","type":"uint256"},{"internalType":"uint256","name":"_price","type":"uint256"}],"name":"placeOffer","outputs":[],"stateMutability":"nonpayable","type":"function"},{"inputs":[{"internalType":"uint256","name":"","type":"uint256"}],"name":"positions","outputs":[{"internalType":"address","name":"buyer","type":"address"},{"internalType":"address","name":"seller","type":"address"},{"internalType":"uint256","name":"size","type":"uint256"},{"internalType":"uint256","name":"collateral","type":"uint256"}],"stateMutability":"view","type":"function"},{"inputs":[],"name":"settlePositions","outputs":[],"stateMutability":"nonpayable","type":"function"},{"inputs":[],"name":"strike","outputs":[{"internalType":"uint256","name":"","type":"uint256"}],"stateMutability":"view","type":"function"},{"stateMutability":"payable","type":"receive"}],"evm":{"bytecode":{"linkReferences":{},"object":"608060405234801561001057600080fd5b5060405161258b38038061258b833981810160405281019061003291906101a5565b428311610074576040517f08c379a000000000000000000000000000000000000000000000000000000000815260040161006b90610269565b60405180910390fd5b836001819055508260028190555081600360006101000a81548173ffffffffffffffffffffffffffffffffffffffff021916908373ffffffffffffffffffffffffffffffffffffffff160217905550806000806101000a81548173ffffffffffffffffffffffffffffffffffffffff021916908373ffffffffffffffffffffffffffffffffffffffff16021790555050505050610289565b600080fd5b6000819050919050565b61012481610111565b811461012f57600080fd5b50565b6000815190506101418161011b565b92915050565b600073ffffffffffffffffffffffffffffffffffffffff82169050919050565b600061017282610147565b9050919050565b61018281610167565b811461018d57600080fd5b50565b60008151905061019f81610179565b92915050565b600080600080608085870312156101bf576101be61010c565b5b60006101cd87828801610132565b94505060206101de87828801610132565b93505060406101ef87828801610190565b925050606061020087828801610190565b91505092959194509250565b600082825260208201905092915050565b7f45787069726174696f6e206d75737420626520696e2074686520667574757265600082015250565b600061025360208361020c565b915061025e8261021d565b602082019050919050565b6000602082019050818103600083015261028281610246565b9050919050565b6122f3806102986000396000f3fe6080604052600436106100a05760003560e01c80639b10d169116100645780639b10d169146101ab5780639ecce700146101c2578063a95902b2146101de578063ad8f500814610207578063b07f0a4114610232578063c45a01551461025b576100a7565b806323be345c146100ac5780634665096d146100d757806374268ff2146101025780638a72ea6a1461012b57806399fbab881461016b576100a7565b366100a757005b600080fd5b3480156100b857600080fd5b506100c1610286565b6040516100ce9190611756565b60405180910390f35b3480156100e357600080fd5b506100ec6102aa565b6040516100f9919061178a565b60405180910390f35b34801561010e57600080fd5b50610129600480360381019061012491906117d6565b6102b0565b005b34801561013757600080fd5b50610152600480360381019061014d91906117d6565b610542565b6040516101629493929190611824565b60405180910390f35b34801561017757600080fd5b50610192600480360381019061018d91906117d6565b6105a2565b6040516101a29493929190611869565b60405180910390f35b3480156101b757600080fd5b506101c0610622565b005b6101dc60048036038101906101d791906117d6565b61083f565b005b3480156101ea57600080fd5b50610205600480360381019061020091906118ae565b610ef2565b005b34801561021357600080fd5b5061021c6110fe565b604051610229919061178a565b60405180910390f35b34801561023e57600080fd5b50610259600480360381019061025491906117d6565b611104565b005b34801561026757600080fd5b50610270611493565b60405161027d91906118ee565b60405180910390f35b60008054906101000a900473ffffffffffffffffffffffffffffffffffffffff1681565b60025481565b60058054905081106102f7576040517f08c379a00000000000000000000000000000000000000000000000000000000081526004016102ee90611966565b60405180910390fd5b3373ffffffffffffffffffffffffffffffffffffffff166005828154811061032257610321611986565b5b906000526020600020906004020160000160009054906101000a900473ffffffffffffffffffffffffffffffffffffffff1673ffffffffffffffffffffffffffffffffffffffff16146103aa576040517f08c379a00000000000000000000000000000000000000000000000000000000081526004016103a190611a27565b60405180910390fd5b3373ffffffffffffffffffffffffffffffffffffffff167fc21fa646cfa9effb4f4abd39a852dd64181309897fedd3e19235b87e685f3bc4826040516103f0919061178a565b60405180910390a26005600160058054905061040c9190611a76565b8154811061041d5761041c611986565b5b90600052602060002090600402016005828154811061043f5761043e611986565b5b90600052602060002090600402016000820160009054906101000a900473ffffffffffffffffffffffffffffffffffffffff168160000160006101000a81548173ffffffffffffffffffffffffffffffffffffffff021916908373ffffffffffffffffffffffffffffffffffffffff16021790555060018201548160010155600282015481600201556003820154816003015590505060058054806104e7576104e6611aaa565b5b6001900381819060005260206000209060040201600080820160006101000a81549073ffffffffffffffffffffffffffffffffffffffff02191690556001820160009055600282016000905560038201600090555050905550565b6005818154811061055257600080fd5b90600052602060002090600402016000915090508060000160009054906101000a900473ffffffffffffffffffffffffffffffffffffffff16908060010154908060020154908060030154905084565b600481815481106105b257600080fd5b90600052602060002090600402016000915090508060000160009054906101000a900473ffffffffffffffffffffffffffffffffffffffff16908060010160009054906101000a900473ffffffffffffffffffffffffffffffffffffffff16908060020154908060030154905084565b600073ffffffffffffffffffffffffffffffffffffffff163373ffffffffffffffffffffffffffffffffffffffff1614610691576040517f08c379a000000000000000000000000000000000000000000000000000000000815260040161068890611b4b565b60405180910390fd5b6002544210156106d6576040517f08c379a00000000000000000000000000000000000000000000000000000000081526004016106cd90611bb7565b60405180910390fd5b60003a905080600154106108145760005b60048054905081101561080d5760006004828154811061070a57610709611986565b5b906000526020600020906004020190506000816002015411156107ff576000816003015411156107ea5760008054906101000a900473ffffffffffffffffffffffffffffffffffffffff1673ffffffffffffffffffffffffffffffffffffffff166374e863ad8260010160009054906101000a900473ffffffffffffffffffffffffffffffffffffffff1683600301546040518363ffffffff1660e01b81526004016107b7929190611bd7565b600060405180830381600087803b1580156107d157600080fd5b505af11580156107e5573d6000803e3d6000fd5b505050505b60008160020181905550600081600301819055505b5080806001019150506106e7565b505061083d565b60005b60048054905081101561083a5761082d816114b9565b8080600101915050610817565b50505b565b6002544210610883576040517f08c379a000000000000000000000000000000000000000000000000000000000815260040161087a90611c4c565b60405180910390fd5b600034116108c6576040517f08c379a00000000000000000000000000000000000000000000000000000000081526004016108bd90611cb8565b60405180910390fd5b6000600582815481106108dc576108db611986565b5b90600052602060002090600402016040518060800160405290816000820160009054906101000a900473ffffffffffffffffffffffffffffffffffffffff1673ffffffffffffffffffffffffffffffffffffffff1673ffffffffffffffffffffffffffffffffffffffff1681526020016001820154815260200160028201548152602001600382015481525050905060008160200151116109b2576040517f08c379a00000000000000000000000000000000000000000000000000000000081526004016109a990611d24565b60405180910390fd5b6000816040015182602001516109c89190611d44565b90506103e88160056109da9190611d44565b6109e49190611db5565b816109ef9190611de6565b341015610a31576040517f08c379a0000000000000000000000000000000000000000000000000000000008152600401610a2890611e66565b60405180910390fd5b600060015483602001516003610a479190611d44565b610a519190611d44565b905060008160008054906101000a900473ffffffffffffffffffffffffffffffffffffffff1673ffffffffffffffffffffffffffffffffffffffff16639b56d6c986600001516040518263ffffffff1660e01b8152600401610ab391906118ee565b602060405180830381865afa158015610ad0573d6000803e3d6000fd5b505050506040513d601f19601f82011682018060405250810190610af49190611e9b565b1015905080610b38576040517f08c379a0000000000000000000000000000000000000000000000000000000008152600401610b2f90611f14565b60405180910390fd5b600060405180608001604052803373ffffffffffffffffffffffffffffffffffffffff168152602001866000015173ffffffffffffffffffffffffffffffffffffffff16815260200186602001518152602001848152509050600481908060018154018082558091505060019003906000526020600020906004020160009091909190915060008201518160000160006101000a81548173ffffffffffffffffffffffffffffffffffffffff021916908373ffffffffffffffffffffffffffffffffffffffff16021790555060208201518160010160006101000a81548173ffffffffffffffffffffffffffffffffffffffff021916908373ffffffffffffffffffffffffffffffffffffffff1602179055506040820151816002015560608201518160030155505060008054906101000a900473ffffffffffffffffffffffffffffffffffffffff1673ffffffffffffffffffffffffffffffffffffffff16632a50d2b78660000151856040518363ffffffff1660e01b8152600401610cc0929190611bd7565b600060405180830381600087803b158015610cda57600080fd5b505af1158015610cee573d6000803e3d6000fd5b505050506000856000015173ffffffffffffffffffffffffffffffffffffffff1685604051610d1c90611f65565b60006040518083038185875af1925050503d8060008114610d59576040519150601f19603f3d011682016040523d82523d6000602084013e610d5e565b606091505b5050905080610da2576040517f08c379a0000000000000000000000000000000000000000000000000000000008152600401610d9990611fec565b60405180910390fd5b60056001600580549050610db69190611a76565b81548110610dc757610dc6611986565b5b906000526020600020906004020160058881548110610de957610de8611986565b5b90600052602060002090600402016000820160009054906101000a900473ffffffffffffffffffffffffffffffffffffffff168160000160006101000a81548173ffffffffffffffffffffffffffffffffffffffff021916908373ffffffffffffffffffffffffffffffffffffffff1602179055506001820154816001015560028201548160020155600382015481600301559050506005805480610e9157610e90611aaa565b5b6001900381819060005260206000209060040201600080820160006101000a81549073ffffffffffffffffffffffffffffffffffffffff02191690556001820160009055600282016000905560038201600090555050905550505050505050565b6002544210610f36576040517f08c379a0000000000000000000000000000000000000000000000000000000008152600401610f2d90611c4c565b60405180910390fd5b60008211610f79576040517f08c379a0000000000000000000000000000000000000000000000000000000008152600401610f7090612058565b60405180910390fd5b60008111610fbc576040517f08c379a0000000000000000000000000000000000000000000000000000000008152600401610fb3906120c4565b60405180910390fd5b600060405180608001604052803373ffffffffffffffffffffffffffffffffffffffff16815260200184815260200183815260200183856003610fff9190611d44565b6110099190611d44565b8152509050600581908060018154018082558091505060019003906000526020600020906004020160009091909190915060008201518160000160006101000a81548173ffffffffffffffffffffffffffffffffffffffff021916908373ffffffffffffffffffffffffffffffffffffffff16021790555060208201518160010155604082015181600201556060820151816003015550503373ffffffffffffffffffffffffffffffffffffffff167fbd6897d6ab8a2726fd0560037489e08c4a4907621eaef87bdf6e8cc6ae5dadb4826020015183604001516040516110f19291906120e4565b60405180910390a2505050565b60015481565b6002544210611148576040517f08c379a000000000000000000000000000000000000000000000000000000000815260040161113f90611c4c565b60405180910390fd5b600480549050811061118f576040517f08c379a000000000000000000000000000000000000000000000000000000000815260040161118690612159565b60405180910390fd5b6000600482815481106111a5576111a4611986565b5b906000526020600020906004020190503373ffffffffffffffffffffffffffffffffffffffff168160000160009054906101000a900473ffffffffffffffffffffffffffffffffffffffff1673ffffffffffffffffffffffffffffffffffffffff1614611247576040517f08c379a000000000000000000000000000000000000000000000000000000000815260040161123e906121c5565b60405180910390fd5b600081600201541161128e576040517f08c379a000000000000000000000000000000000000000000000000000000000815260040161128590612231565b60405180910390fd5b60003a905060015481116112d7576040517f08c379a00000000000000000000000000000000000000000000000000000000081526004016112ce9061229d565b60405180910390fd5b6000600154826112e79190611a76565b905060008360020154826112fb9190611d44565b9050600084600301548210611316578460030154905061131a565b8190505b600081866003015461132c9190611a76565b905060008111156113e95760008054906101000a900473ffffffffffffffffffffffffffffffffffffffff1673ffffffffffffffffffffffffffffffffffffffff166374e863ad8760010160009054906101000a900473ffffffffffffffffffffffffffffffffffffffff16836040518363ffffffff1660e01b81526004016113b6929190611bd7565b600060405180830381600087803b1580156113d057600080fd5b505af11580156113e4573d6000803e3d6000fd5b505050505b60008054906101000a900473ffffffffffffffffffffffffffffffffffffffff1673ffffffffffffffffffffffffffffffffffffffff16636680756633846040518363ffffffff1660e01b8152600401611444929190611bd7565b600060405180830381600087803b15801561145e57600080fd5b505af1158015611472573d6000803e3d6000fd5b50505050600086600201819055506000866003018190555050505050505050565b600360009054906101000a900473ffffffffffffffffffffffffffffffffffffffff1681565b6000600482815481106114cf576114ce611986565b5b9060005260206000209060040201905060008160020154036114f157506116d4565b60003a90506000600154826115069190611a76565b9050600083600201548261151a9190611d44565b90506000846003015482106115355784600301549050611539565b8190505b600081866003015461154b9190611a76565b905060008111156116085760008054906101000a900473ffffffffffffffffffffffffffffffffffffffff1673ffffffffffffffffffffffffffffffffffffffff166374e863ad8760010160009054906101000a900473ffffffffffffffffffffffffffffffffffffffff16836040518363ffffffff1660e01b81526004016115d5929190611bd7565b600060405180830381600087803b1580156115ef57600080fd5b505af1158015611603573d6000803e3d6000fd5b505050505b60008054906101000a900473ffffffffffffffffffffffffffffffffffffffff1673ffffffffffffffffffffffffffffffffffffffff1663668075668760000160009054906101000a900473ffffffffffffffffffffffffffffffffffffffff16846040518363ffffffff1660e01b8152600401611687929190611bd7565b600060405180830381600087803b1580156116a157600080fd5b505af11580156116b5573d6000803e3d6000fd5b5050505060008660020181905550600086600301819055505050505050505b50565b600073ffffffffffffffffffffffffffffffffffffffff82169050919050565b6000819050919050565b600061171c611717611712846116d7565b6116f7565b6116d7565b9050919050565b600061172e82611701565b9050919050565b600061174082611723565b9050919050565b61175081611735565b82525050565b600060208201905061176b6000830184611747565b92915050565b6000819050919050565b61178481611771565b82525050565b600060208201905061179f600083018461177b565b92915050565b600080fd5b6117b381611771565b81146117be57600080fd5b50565b6000813590506117d0816117aa565b92915050565b6000602082840312156117ec576117eb6117a5565b5b60006117fa848285016117c1565b91505092915050565b600061180e826116d7565b9050919050565b61181e81611803565b82525050565b60006080820190506118396000830187611815565b611846602083018661177b565b611853604083018561177b565b611860606083018461177b565b95945050505050565b600060808201905061187e6000830187611815565b61188b6020830186611815565b611898604083018561177b565b6118a5606083018461177b565b95945050505050565b600080604083850312156118c5576118c46117a5565b5b60006118d3858286016117c1565b92505060206118e4858286016117c1565b9150509250929050565b60006020820190506119036000830184611815565b92915050565b600082825260208201905092915050565b7f496e76616c6964206f6666657220696e64657800000000000000000000000000600082015250565b6000611950601383611909565b915061195b8261191a565b602082019050919050565b6000602082019050818103600083015261197f81611943565b9050919050565b7f4e487b7100000000000000000000000000000000000000000000000000000000600052603260045260246000fd5b7f4f6e6c79207468652073656c6c65722063616e2064656c65746520746869732060008201527f6f66666572000000000000000000000000000000000000000000000000000000602082015250565b6000611a11602583611909565b9150611a1c826119b5565b604082019050919050565b60006020820190508181036000830152611a4081611a04565b9050919050565b7f4e487b7100000000000000000000000000000000000000000000000000000000600052601160045260246000fd5b6000611a8182611771565b9150611a8c83611771565b9250828203905081811115611aa457611aa3611a47565b5b92915050565b7f4e487b7100000000000000000000000000000000000000000000000000000000600052603160045260246000fd5b7f4f6e6c79207468652061646d696e2063616e2063616c6c20746869732066756e60008201527f6374696f6e000000000000000000000000000000000000000000000000000000602082015250565b6000611b35602583611909565b9150611b4082611ad9565b604082019050919050565b60006020820190508181036000830152611b6481611b28565b9050919050565b7f4f7074696f6e20686173206e6f74206578706972656420796574000000000000600082015250565b6000611ba1601a83611909565b9150611bac82611b6b565b602082019050919050565b60006020820190508181036000830152611bd081611b94565b9050919050565b6000604082019050611bec6000830185611815565b611bf9602083018461177b565b9392505050565b7f4f7074696f6e2068617320657870697265640000000000000000000000000000600082015250565b6000611c36601283611909565b9150611c4182611c00565b602082019050919050565b60006020820190508181036000830152611c6581611c29565b9050919050565b7f4d7573742073656e642045544820746f20627579206f66666572730000000000600082015250565b6000611ca2601b83611909565b9150611cad82611c6c565b602082019050919050565b60006020820190508181036000830152611cd181611c95565b9050919050565b7f4f6666657220686173206e6f20756e697473206c656674000000000000000000600082015250565b6000611d0e601783611909565b9150611d1982611cd8565b602082019050919050565b60006020820190508181036000830152611d3d81611d01565b9050919050565b6000611d4f82611771565b9150611d5a83611771565b9250828202611d6881611771565b91508282048414831517611d7f57611d7e611a47565b5b5092915050565b7f4e487b7100000000000000000000000000000000000000000000000000000000600052601260045260246000fd5b6000611dc082611771565b9150611dcb83611771565b925082611ddb57611dda611d86565b5b828204905092915050565b6000611df182611771565b9150611dfc83611771565b9250828201905080821115611e1457611e13611a47565b5b92915050565b7f496e73756666696369656e74204554482073656e740000000000000000000000600082015250565b6000611e50601583611909565b9150611e5b82611e1a565b602082019050919050565b60006020820190508181036000830152611e7f81611e43565b9050919050565b600081519050611e95816117aa565b92915050565b600060208284031215611eb157611eb06117a5565b5b6000611ebf84828501611e86565b91505092915050565b7f496e73756666696369656e742073656c6c657220636f6c6c61746572616c0000600082015250565b6000611efe601e83611909565b9150611f0982611ec8565b602082019050919050565b60006020820190508181036000830152611f2d81611ef1565b9050919050565b600081905092915050565b50565b6000611f4f600083611f34565b9150611f5a82611f3f565b600082019050919050565b6000611f7082611f42565b9150819050919050565b7f4661696c656420746f207472616e73666572207072656d69756d20746f20736560008201527f6c6c657200000000000000000000000000000000000000000000000000000000602082015250565b6000611fd6602483611909565b9150611fe182611f7a565b604082019050919050565b6000602082019050818103600083015261200581611fc9565b9050919050565b7f416d6f756e74206d7573742062652067726561746572207468616e207a65726f600082015250565b6000612042602083611909565b915061204d8261200c565b602082019050919050565b6000602082019050818103600083015261207181612035565b9050919050565b7f5072696365206d7573742062652067726561746572207468616e207a65726f00600082015250565b60006120ae601f83611909565b91506120b982612078565b602082019050919050565b600060208201905081810360008301526120dd816120a1565b9050919050565b60006040820190506120f9600083018561177b565b612106602083018461177b565b9392505050565b7f496e76616c696420706f736974696f6e20696e64657800000000000000000000600082015250565b6000612143601683611909565b915061214e8261210d565b602082019050919050565b6000602082019050818103600083015261217281612136565b9050919050565b7f4f6e6c792062757965722063616e206578657263697365000000000000000000600082015250565b60006121af601783611909565b91506121ba82612179565b602082019050919050565b600060208201905081810360008301526121de816121a2565b9050919050565b7f506f736974696f6e20616c726561647920657865726369736564000000000000600082015250565b600061221b601a83611909565b9150612226826121e5565b602082019050919050565b6000602082019050818103600083015261224a8161220e565b9050919050565b7f4f7074696f6e206e6f742049544d000000000000000000000000000000000000600082015250565b6000612287600e83611909565b915061229282612251565b602082019050919050565b600060208201905081810360008301526122b68161227a565b905091905056fea2646970667358221220d16f8eb1b55bb986b5739fbeedea06d78ff820e309040ab3171eea697fda88e264736f6c634300081a0033","opcodes":"PUSH1 0x80 PUSH1 0x40 MSTORE CALLVALUE DUP1 ISZERO PUSH2 0x10 JUMPI PUSH1 0x0 DUP1 REVERT JUMPDEST POP PUSH1 0x40 MLOAD PUSH2 0x258B CODESIZE SUB DUP1 PUSH2 0x258B DUP4 CODECOPY DUP2 DUP2 ADD PUSH1 0x40 MSTORE DUP2 ADD SWAP1 PUSH2 0x32 SWAP2 SWAP1 PUSH2 0x1A5 JUMP JUMPDEST TIMESTAMP DUP4 GT PUSH2 0x74 JUMPI PUSH1 0x40 MLOAD PUSH32 0x8C379A000000000000000000000000000000000000000000000000000000000 DUP2 MSTORE PUSH1 0x4 ADD PUSH2 0x6B SWAP1 PUSH2 0x269 JUMP JUMPDEST PUSH1 0x40 MLOAD DUP1 SWAP2 SUB SWAP1 REVERT JUMPDEST DUP4 PUSH1 0x1 DUP2 SWAP1 SSTORE POP DUP3 PUSH1 0x2 DUP2 SWAP1 SSTORE POP DUP2 PUSH1 0x3 PUSH1 0x0 PUSH2 0x100 EXP DUP2 SLOAD DUP2 PUSH20 0xFFFFFFFFFFFFFFFFFFFFFFFFFFFFFFFFFFFFFFFF MUL NOT AND SWAP1 DUP4 PUSH20 0xFFFFFFFFFFFFFFFFFFFFFFFFFFFFFFFFFFFFFFFF AND MUL OR SWAP1 SSTORE POP DUP1 PUSH1 0x0 DUP1 PUSH2 0x100 EXP DUP2 SLOAD DUP2 PUSH20 0xFFFFFFFFFFFFFFFFFFFFFFFFFFFFFFFFFFFFFFFF MUL NOT AND SWAP1 DUP4 PUSH20 0xFFFFFFFFFFFFFFFFFFFFFFFFFFFFFFFFFFFFFFFF AND MUL OR SWAP1 SSTORE POP POP POP POP POP PUSH2 0x289 JUMP JUMPDEST PUSH1 0x0 DUP1 REVERT JUMPDEST PUSH1 0x0 DUP2 SWAP1 POP SWAP2 SWAP1 POP JUMP JUMPDEST PUSH2 0x124 DUP2 PUSH2 0x111 JUMP JUMPDEST DUP2 EQ PUSH2 0x12F JUMPI PUSH1 0x0 DUP1 REVERT JUMPDEST POP JUMP JUMPDEST PUSH1 0x0 DUP2 MLOAD SWAP1 POP PUSH2 0x141 DUP2 PUSH2 0x11B JUMP JUMPDEST SWAP3 SWAP2 POP POP JUMP JUMPDEST PUSH1 0x0 PUSH20 0xFFFFFFFFFFFFFFFFFFFFFFFFFFFFFFFFFFFFFFFF DUP3 AND SWAP1 POP SWAP2 SWAP1 POP JUMP JUMPDEST PUSH1 0x0 PUSH2 0x172 DUP3 PUSH2 0x147 JUMP JUMPDEST SWAP1 POP SWAP2 SWAP1 POP JUMP JUMPDEST PUSH2 0x182 DUP2 PUSH2 0x167 JUMP JUMPDEST DUP2 EQ PUSH2 0x18D JUMPI PUSH1 0x0 DUP1 REVERT JUMPDEST POP JUMP JUMPDEST PUSH1 0x0 DUP2 MLOAD SWAP1 POP PUSH2 0x19F DUP2 PUSH2 0x179 JUMP JUMPDEST SWAP3 SWAP2 POP POP JUMP JUMPDEST PUSH1 0x0 DUP1 PUSH1 0x0 DUP1 PUSH1 0x80 DUP6 DUP8 SUB SLT ISZERO PUSH2 0x1BF JUMPI PUSH2 0x1BE PUSH2 0x10C JUMP JUMPDEST JUMPDEST PUSH1 0x0 PUSH2 0x1CD DUP8 DUP3 DUP9 ADD PUSH2 0x132 JUMP JUMPDEST SWAP5 POP POP PUSH1 0x20 PUSH2 0x1DE DUP8 DUP3 DUP9 ADD PUSH2 0x132 JUMP JUMPDEST SWAP4 POP POP PUSH1 0x40 PUSH2 0x1EF DUP8 DUP3 DUP9 ADD PUSH2 0x190 JUMP JUMPDEST SWAP3 POP POP PUSH1 0x60 PUSH2 0x200 DUP8 DUP3 DUP9 ADD PUSH2 0x190 JUMP JUMPDEST SWAP2 POP POP SWAP3 SWAP6 SWAP2 SWAP5 POP SWAP3 POP JUMP JUMPDEST PUSH1 0x0 DUP3 DUP3 MSTORE PUSH1 0x20 DUP3 ADD SWAP1 POP SWAP3 SWAP2 POP POP JUMP JUMPDEST PUSH32 0x45787069726174696F6E206D75737420626520696E2074686520667574757265 PUSH1 0x0 DUP3 ADD MSTORE POP JUMP JUMPDEST PUSH1 0x0 PUSH2 0x253 PUSH1 0x20 DUP4 PUSH2 0x20C JUMP JUMPDEST SWAP2 POP PUSH2 0x25E DUP3 PUSH2 0x21D JUMP JUMPDEST PUSH1 0x20 DUP3 ADD SWAP1 POP SWAP2 SWAP1 POP JUMP JUMPDEST PUSH1 0x0 PUSH1 0x20 DUP3 ADD SWAP1 POP DUP2 DUP2 SUB PUSH1 0x0 DUP4 ADD MSTORE PUSH2 0x282 DUP2 PUSH2 0x246 JUMP JUMPDEST SWAP1 POP SWAP2 SWAP1 POP JUMP JUMPDEST PUSH2 0x22F3 DUP1 PUSH2 0x298 PUSH1 0x0 CODECOPY PUSH1 0x0 RETURN INVALID PUSH1 0x80 PUSH1 0x40 MSTORE PUSH1 0x4 CALLDATASIZE LT PUSH2 0xA0 JUMPI PUSH1 0x0 CALLDATALOAD PUSH1 0xE0 SHR DUP1 PUSH4 0x9B10D169 GT PUSH2 0x64 JUMPI DUP1 PUSH4 0x9B10D169 EQ PUSH2 0x1AB JUMPI DUP1 PUSH4 0x9ECCE700 EQ PUSH2 0x1C2 JUMPI DUP1 PUSH4 0xA95902B2 EQ PUSH2 0x1DE JUMPI DUP1 PUSH4 0xAD8F5008 EQ PUSH2 0x207 JUMPI DUP1 PUSH4 0xB07F0A41 EQ PUSH2 0x232 JUMPI DUP1 PUSH4 0xC45A0155 EQ PUSH2 0x25B JUMPI PUSH2 0xA7 JUMP JUMPDEST DUP1 PUSH4 0x23BE345C EQ PUSH2 0xAC JUMPI DUP1 PUSH4 0x4665096D EQ PUSH2 0xD7 JUMPI DUP1 PUSH4 0x74268FF2 EQ PUSH2 0x102 JUMPI DUP1 PUSH4 0x8A72EA6A EQ PUSH2 0x12B JUMPI DUP1 PUSH4 0x99FBAB88 EQ PUSH2 0x16B JUMPI PUSH2 0xA7 JUMP JUMPDEST CALLDATASIZE PUSH2 0xA7 JUMPI STOP JUMPDEST PUSH1 0x0 DUP1 REVERT JUMPDEST CALLVALUE DUP1 ISZERO PUSH2 0xB8 JUMPI PUSH1 0x0 DUP1 REVERT JUMPDEST POP PUSH2 0xC1 PUSH2 0x286 JUMP JUMPDEST PUSH1 0x40 MLOAD PUSH2 0xCE SWAP2 SWAP1 PUSH2 0x1756 JUMP JUMPDEST PUSH1 0x40 MLOAD DUP1 SWAP2 SUB SWAP1 RETURN JUMPDEST CALLVALUE DUP1 ISZERO PUSH2 0xE3 JUMPI PUSH1 0x0 DUP1 REVERT JUMPDEST POP PUSH2 0xEC PUSH2 0x2AA JUMP JUMPDEST PUSH1 0x40 MLOAD PUSH2 0xF9 SWAP2 SWAP1 PUSH2 0x178A JUMP JUMPDEST PUSH1 0x40 MLOAD DUP1 SWAP2 SUB SWAP1 RETURN JUMPDEST CALLVALUE DUP1 ISZERO PUSH2 0x10E JUMPI PUSH1 0x0 DUP1 REVERT JUMPDEST POP PUSH2 0x129 PUSH1 0x4 DUP1 CALLDATASIZE SUB DUP2 ADD SWAP1 PUSH2 0x124 SWAP2 SWAP1 PUSH2 0x17D6 JUMP JUMPDEST PUSH2 0x2B0 JUMP JUMPDEST STOP JUMPDEST CALLVALUE DUP1 ISZERO PUSH2 0x137 JUMPI PUSH1 0x0 DUP1 REVERT JUMPDEST POP PUSH2 0x152 PUSH1 0x4 DUP1 CALLDATASIZE SUB DUP2 ADD SWAP1 PUSH2 0x14D SWAP2 SWAP1 PUSH2 0x17D6 JUMP JUMPDEST PUSH2 0x542 JUMP JUMPDEST PUSH1 0x40 MLOAD PUSH2 0x162 SWAP5 SWAP4 SWAP3 SWAP2 SWAP1 PUSH2 0x1824 JUMP JUMPDEST PUSH1 0x40 MLOAD DUP1 SWAP2 SUB SWAP1 RETURN JUMPDEST CALLVALUE DUP1 ISZERO PUSH2 0x177 JUMPI PUSH1 0x0 DUP1 REVERT JUMPDEST POP PUSH2 0x192 PUSH1 0x4 DUP1 CALLDATASIZE SUB DUP2 ADD SWAP1 PUSH2 0x18D SWAP2 SWAP1 PUSH2 0x17D6 JUMP JUMPDEST PUSH2 0x5A2 JUMP JUMPDEST PUSH1 0x40 MLOAD PUSH2 0x1A2 SWAP5 SWAP4 SWAP3 SWAP2 SWAP1 PUSH2 0x1869 JUMP JUMPDEST PUSH1 0x40 MLOAD DUP1 SWAP2 SUB SWAP1 RETURN JUMPDEST CALLVALUE DUP1 ISZERO PUSH2 0x1B7 JUMPI PUSH1 0x0 DUP1 REVERT JUMPDEST POP PUSH2 0x1C0 PUSH2 0x622 JUMP JUMPDEST STOP JUMPDEST PUSH2 0x1DC PUSH1 0x4 DUP1 CALLDATASIZE SUB DUP2 ADD SWAP1 PUSH2 0x1D7 SWAP2 SWAP1 PUSH2 0x17D6 JUMP JUMPDEST PUSH2 0x83F JUMP JUMPDEST STOP JUMPDEST CALLVALUE DUP1 ISZERO PUSH2 0x1EA JUMPI PUSH1 0x0 DUP1 REVERT JUMPDEST POP PUSH2 0x205 PUSH1 0x4 DUP1 CALLDATASIZE SUB DUP2 ADD SWAP1 PUSH2 0x200 SWAP2 SWAP1 PUSH2 0x18AE JUMP JUMPDEST PUSH2 0xEF2 JUMP JUMPDEST STOP JUMPDEST CALLVALUE DUP1 ISZERO PUSH2 0x213 JUMPI PUSH1 0x0 DUP1 REVERT JUMPDEST POP PUSH2 0x21C PUSH2 0x10FE JUMP JUMPDEST PUSH1 0x40 MLOAD PUSH2 0x229 SWAP2 SWAP1 PUSH2 0x178A JUMP JUMPDEST PUSH1 0x40 MLOAD DUP1 SWAP2 SUB SWAP1 RETURN JUMPDEST CALLVALUE DUP1 ISZERO PUSH2 0x23E JUMPI PUSH1 0x0 DUP1 REVERT JUMPDEST POP PUSH2 0x259 PUSH1 0x4 DUP1 CALLDATASIZE SUB DUP2 ADD SWAP1 PUSH2 0x254 SWAP2 SWAP1 PUSH2 0x17D6 JUMP JUMPDEST PUSH2 0x1104 JUMP JUMPDEST STOP JUMPDEST CALLVALUE DUP1 ISZERO PUSH2 0x267 JUMPI PUSH1 0x0 DUP1 REVERT JUMPDEST POP PUSH2 0x270 PUSH2 0x1493 JUMP JUMPDEST PUSH1 0x40 MLOAD PUSH2 0x27D SWAP2 SWAP1 PUSH2 0x18EE JUMP JUMPDEST PUSH1 0x40 MLOAD DUP1 SWAP2 SUB SWAP1 RETURN JUMPDEST PUSH1 0x0 DUP1 SLOAD SWAP1 PUSH2 0x100 EXP SWAP1 DIV PUSH20 0xFFFFFFFFFFFFFFFFFFFFFFFFFFFFFFFFFFFFFFFF AND DUP2 JUMP JUMPDEST PUSH1 0x2 SLOAD DUP2 JUMP JUMPDEST PUSH1 0x5 DUP1 SLOAD SWAP1 POP DUP2 LT PUSH2 0x2F7 JUMPI PUSH1 0x40 MLOAD PUSH32 0x8C379A000000000000000000000000000000000000000000000000000000000 DUP2 MSTORE PUSH1 0x4 ADD PUSH2 0x2EE SWAP1 PUSH2 0x1966 JUMP JUMPDEST PUSH1 0x40 MLOAD DUP1 SWAP2 SUB SWAP1 REVERT JUMPDEST CALLER PUSH20 0xFFFFFFFFFFFFFFFFFFFFFFFFFFFFFFFFFFFFFFFF AND PUSH1 0x5 DUP3 DUP2 SLOAD DUP2 LT PUSH2 0x322 JUMPI PUSH2 0x321 PUSH2 0x1986 JUMP JUMPDEST JUMPDEST SWAP1 PUSH1 0x0 MSTORE PUSH1 0x20 PUSH1 0x0 KECCAK256 SWAP1 PUSH1 0x4 MUL ADD PUSH1 0x0 ADD PUSH1 0x0 SWAP1 SLOAD SWAP1 PUSH2 0x100 EXP SWAP1 DIV PUSH20 0xFFFFFFFFFFFFFFFFFFFFFFFFFFFFFFFFFFFFFFFF AND PUSH20 0xFFFFFFFFFFFFFFFFFFFFFFFFFFFFFFFFFFFFFFFF AND EQ PUSH2 0x3AA JUMPI PUSH1 0x40 MLOAD PUSH32 0x8C379A000000000000000000000000000000000000000000000000000000000 DUP2 MSTORE PUSH1 0x4 ADD PUSH2 0x3A1 SWAP1 PUSH2 0x1A27 JUMP JUMPDEST PUSH1 0x40 MLOAD DUP1 SWAP2 SUB SWAP1 REVERT JUMPDEST CALLER PUSH20 0xFFFFFFFFFFFFFFFFFFFFFFFFFFFFFFFFFFFFFFFF AND PUSH32 0xC21FA646CFA9EFFB4F4ABD39A852DD64181309897FEDD3E19235B87E685F3BC4 DUP3 PUSH1 0x40 MLOAD PUSH2 0x3F0 SWAP2 SWAP1 PUSH2 0x178A JUMP JUMPDEST PUSH1 0x40 MLOAD DUP1 SWAP2 SUB SWAP1 LOG2 PUSH1 0x5 PUSH1 0x1 PUSH1 0x5 DUP1 SLOAD SWAP1 POP PUSH2 0x40C SWAP2 SWAP1 PUSH2 0x1A76 JUMP JUMPDEST DUP2 SLOAD DUP2 LT PUSH2 0x41D JUMPI PUSH2 0x41C PUSH2 0x1986 JUMP JUMPDEST JUMPDEST SWAP1 PUSH1 0x0 MSTORE PUSH1 0x20 PUSH1 0x0 KECCAK256 SWAP1 PUSH1 0x4 MUL ADD PUSH1 0x5 DUP3 DUP2 SLOAD DUP2 LT PUSH2 0x43F JUMPI PUSH2 0x43E PUSH2 0x1986 JUMP JUMPDEST JUMPDEST SWAP1 PUSH1 0x0 MSTORE PUSH1 0x20 PUSH1 0x0 KECCAK256 SWAP1 PUSH1 0x4 MUL ADD PUSH1 0x0 DUP3 ADD PUSH1 0x0 SWAP1 SLOAD SWAP1 PUSH2 0x100 EXP SWAP1 DIV PUSH20 0xFFFFFFFFFFFFFFFFFFFFFFFFFFFFFFFFFFFFFFFF AND DUP2 PUSH1 0x0 ADD PUSH1 0x0 PUSH2 0x100 EXP DUP2 SLOAD DUP2 PUSH20 0xFFFFFFFFFFFFFFFFFFFFFFFFFFFFFFFFFFFFFFFF MUL NOT AND SWAP1 DUP4 PUSH20 0xFFFFFFFFFFFFFFFFFFFFFFFFFFFFFFFFFFFFFFFF AND MUL OR SWAP1 SSTORE POP PUSH1 0x1 DUP3 ADD SLOAD DUP2 PUSH1 0x1 ADD SSTORE PUSH1 0x2 DUP3 ADD SLOAD DUP2 PUSH1 0x2 ADD SSTORE PUSH1 0x3 DUP3 ADD SLOAD DUP2 PUSH1 0x3 ADD SSTORE SWAP1 POP POP PUSH1 0x5 DUP1 SLOAD DUP1 PUSH2 0x4E7 JUMPI PUSH2 0x4E6 PUSH2 0x1AAA JUMP JUMPDEST JUMPDEST PUSH1 0x1 SWAP1 SUB DUP2 DUP2 SWAP1 PUSH1 0x0 MSTORE PUSH1 0x20 PUSH1 0x0 KECCAK256 SWAP1 PUSH1 0x4 MUL ADD PUSH1 0x0 DUP1 DUP3 ADD PUSH1 0x0 PUSH2 0x100 EXP DUP2 SLOAD SWAP1 PUSH20 0xFFFFFFFFFFFFFFFFFFFFFFFFFFFFFFFFFFFFFFFF MUL NOT AND SWAP1 SSTORE PUSH1 0x1 DUP3 ADD PUSH1 0x0 SWAP1 SSTORE PUSH1 0x2 DUP3 ADD PUSH1 0x0 SWAP1 SSTORE PUSH1 0x3 DUP3 ADD PUSH1 0x0 SWAP1 SSTORE POP POP SWAP1 SSTORE POP JUMP JUMPDEST PUSH1 0x5 DUP2 DUP2 SLOAD DUP2 LT PUSH2 0x552 JUMPI PUSH1 0x0 DUP1 REVERT JUMPDEST SWAP1 PUSH1 0x0 MSTORE PUSH1 0x20 PUSH1 0x0 KECCAK256 SWAP1 PUSH1 0x4 MUL ADD PUSH1 0x0 SWAP2 POP SWAP1 POP DUP1 PUSH1 0x0 ADD PUSH1 0x0 SWAP1 SLOAD SWAP1 PUSH2 0x100 EXP SWAP1 DIV PUSH20 0xFFFFFFFFFFFFFFFFFFFFFFFFFFFFFFFFFFFFFFFF AND SWAP1 DUP1 PUSH1 0x1 ADD SLOAD SWAP1 DUP1 PUSH1 0x2 ADD SLOAD SWAP1 DUP1 PUSH1 0x3 ADD SLOAD SWAP1 POP DUP5 JUMP JUMPDEST PUSH1 0x4 DUP2 DUP2 SLOAD DUP2 LT PUSH2 0x5B2 JUMPI PUSH1 0x0 DUP1 REVERT JUMPDEST SWAP1 PUSH1 0x0 MSTORE PUSH1 0x20 PUSH1 0x0 KECCAK256 SWAP1 PUSH1 0x4 MUL ADD PUSH1 0x0 SWAP2 POP SWAP1 POP DUP1 PUSH1 0x0 ADD PUSH1 0x0 SWAP1 SLOAD SWAP1 PUSH2 0x100 EXP SWAP1 DIV PUSH20 0xFFFFFFFFFFFFFFFFFFFFFFFFFFFFFFFFFFFFFFFF AND SWAP1 DUP1 PUSH1 0x1 ADD PUSH1 0x0 SWAP1 SLOAD SWAP1 PUSH2 0x100 EXP SWAP1 DIV PUSH20 0xFFFFFFFFFFFFFFFFFFFFFFFFFFFFFFFFFFFFFFFF AND SWAP1 DUP1 PUSH1 0x2 ADD SLOAD SWAP1 DUP1 PUSH1 0x3 ADD SLOAD SWAP1 POP DUP5 JUMP JUMPDEST PUSH1 0x0 PUSH20 0xFFFFFFFFFFFFFFFFFFFFFFFFFFFFFFFFFFFFFFFF AND CALLER PUSH20 0xFFFFFFFFFFFFFFFFFFFFFFFFFFFFFFFFFFFFFFFF AND EQ PUSH2 0x691 JUMPI PUSH1 0x40 MLOAD PUSH32 0x8C379A000000000000000000000000000000000000000000000000000000000 DUP2 MSTORE PUSH1 0x4 ADD PUSH2 0x688 SWAP1 PUSH2 0x1B4B JUMP JUMPDEST PUSH1 0x40 MLOAD DUP1 SWAP2 SUB SWAP1 REVERT JUMPDEST PUSH1 0x2 SLOAD TIMESTAMP LT ISZERO PUSH2 0x6D6 JUMPI PUSH1 0x40 MLOAD PUSH32 0x8C379A000000000000000000000000000000000000000000000000000000000 DUP2 MSTORE PUSH1 0x4 ADD PUSH2 0x6CD SWAP1 PUSH2 0x1BB7 JUMP JUMPDEST PUSH1 0x40 MLOAD DUP1 SWAP2 SUB SWAP1 REVERT JUMPDEST PUSH1 0x0 GASPRICE SWAP1 POP DUP1 PUSH1 0x1 SLOAD LT PUSH2 0x814 JUMPI PUSH1 0x0 JUMPDEST PUSH1 0x4 DUP1 SLOAD SWAP1 POP DUP2 LT ISZERO PUSH2 0x80D JUMPI PUSH1 0x0 PUSH1 0x4 DUP3 DUP2 SLOAD DUP2 LT PUSH2 0x70A JUMPI PUSH2 0x709 PUSH2 0x1986 JUMP JUMPDEST JUMPDEST SWAP1 PUSH1 0x0 MSTORE PUSH1 0x20 PUSH1 0x0 KECCAK256 SWAP1 PUSH1 0x4 MUL ADD SWAP1 POP PUSH1 0x0 DUP2 PUSH1 0x2 ADD SLOAD GT ISZERO PUSH2 0x7FF JUMPI PUSH1 0x0 DUP2 PUSH1 0x3 ADD SLOAD GT ISZERO PUSH2 0x7EA JUMPI PUSH1 0x0 DUP1 SLOAD SWAP1 PUSH2 0x100 EXP SWAP1 DIV PUSH20 0xFFFFFFFFFFFFFFFFFFFFFFFFFFFFFFFFFFFFFFFF AND PUSH20 0xFFFFFFFFFFFFFFFFFFFFFFFFFFFFFFFFFFFFFFFF AND PUSH4 0x74E863AD DUP3 PUSH1 0x1 ADD PUSH1 0x0 SWAP1 SLOAD SWAP1 PUSH2 0x100 EXP SWAP1 DIV PUSH20 0xFFFFFFFFFFFFFFFFFFFFFFFFFFFFFFFFFFFFFFFF AND DUP4 PUSH1 0x3 ADD SLOAD PUSH1 0x40 MLOAD DUP4 PUSH4 0xFFFFFFFF AND PUSH1 0xE0 SHL DUP2 MSTORE PUSH1 0x4 ADD PUSH2 0x7B7 SWAP3 SWAP2 SWAP1 PUSH2 0x1BD7 JUMP JUMPDEST PUSH1 0x0 PUSH1 0x40 MLOAD DUP1 DUP4 SUB DUP2 PUSH1 0x0 DUP8 DUP1 EXTCODESIZE ISZERO DUP1 ISZERO PUSH2 0x7D1 JUMPI PUSH1 0x0 DUP1 REVERT JUMPDEST POP GAS CALL ISZERO DUP1 ISZERO PUSH2 0x7E5 JUMPI RETURNDATASIZE PUSH1 0x0 DUP1 RETURNDATACOPY RETURNDATASIZE PUSH1 0x0 REVERT JUMPDEST POP POP POP POP JUMPDEST PUSH1 0x0 DUP2 PUSH1 0x2 ADD DUP2 SWAP1 SSTORE POP PUSH1 0x0 DUP2 PUSH1 0x3 ADD DUP2 SWAP1 SSTORE POP JUMPDEST POP DUP1 DUP1 PUSH1 0x1 ADD SWAP2 POP POP PUSH2 0x6E7 JUMP JUMPDEST POP POP PUSH2 0x83D JUMP JUMPDEST PUSH1 0x0 JUMPDEST PUSH1 0x4 DUP1 SLOAD SWAP1 POP DUP2 LT ISZERO PUSH2 0x83A JUMPI PUSH2 0x82D DUP2 PUSH2 0x14B9 JUMP JUMPDEST DUP1 DUP1 PUSH1 0x1 ADD SWAP2 POP POP PUSH2 0x817 JUMP JUMPDEST POP POP JUMPDEST JUMP JUMPDEST PUSH1 0x2 SLOAD TIMESTAMP LT PUSH2 0x883 JUMPI PUSH1 0x40 MLOAD PUSH32 0x8C379A000000000000000000000000000000000000000000000000000000000 DUP2 MSTORE PUSH1 0x4 ADD PUSH2 0x87A SWAP1 PUSH2 0x1C4C JUMP JUMPDEST PUSH1 0x40 MLOAD DUP1 SWAP2 SUB SWAP1 REVERT JUMPDEST PUSH1 0x0 CALLVALUE GT PUSH2 0x8C6 JUMPI PUSH1 0x40 MLOAD PUSH32 0x8C379A000000000000000000000000000000000000000000000000000000000 DUP2 MSTORE PUSH1 0x4 ADD PUSH2 0x8BD SWAP1 PUSH2 0x1CB8 JUMP JUMPDEST PUSH1 0x40 MLOAD DUP1 SWAP2 SUB SWAP1 REVERT JUMPDEST PUSH1 0x0 PUSH1 0x5 DUP3 DUP2 SLOAD DUP2 LT PUSH2 0x8DC JUMPI PUSH2 0x8DB PUSH2 0x1986 JUMP JUMPDEST JUMPDEST SWAP1 PUSH1 0x0 MSTORE PUSH1 0x20 PUSH1 0x0 KECCAK256 SWAP1 PUSH1 0x4 MUL ADD PUSH1 0x40 MLOAD DUP1 PUSH1 0x80 ADD PUSH1 0x40 MSTORE SWAP1 DUP2 PUSH1 0x0 DUP3 ADD PUSH1 0x0 SWAP1 SLOAD SWAP1 PUSH2 0x100 EXP SWAP1 DIV PUSH20 0xFFFFFFFFFFFFFFFFFFFFFFFFFFFFFFFFFFFFFFFF AND PUSH20 0xFFFFFFFFFFFFFFFFFFFFFFFFFFFFFFFFFFFFFFFF AND PUSH20 0xFFFFFFFFFFFFFFFFFFFFFFFFFFFFFFFFFFFFFFFF AND DUP2 MSTORE PUSH1 0x20 ADD PUSH1 0x1 DUP3 ADD SLOAD DUP2 MSTORE PUSH1 0x20 ADD PUSH1 0x2 DUP3 ADD SLOAD DUP2 MSTORE PUSH1 0x20 ADD PUSH1 0x3 DUP3 ADD SLOAD DUP2 MSTORE POP POP SWAP1 POP PUSH1 0x0 DUP2 PUSH1 0x20 ADD MLOAD GT PUSH2 0x9B2 JUMPI PUSH1 0x40 MLOAD PUSH32 0x8C379A000000000000000000000000000000000000000000000000000000000 DUP2 MSTORE PUSH1 0x4 ADD PUSH2 0x9A9 SWAP1 PUSH2 0x1D24 JUMP JUMPDEST PUSH1 0x40 MLOAD DUP1 SWAP2 SUB SWAP1 REVERT JUMPDEST PUSH1 0x0 DUP2 PUSH1 0x40 ADD MLOAD DUP3 PUSH1 0x20 ADD MLOAD PUSH2 0x9C8 SWAP2 SWAP1 PUSH2 0x1D44 JUMP JUMPDEST SWAP1 POP PUSH2 0x3E8 DUP2 PUSH1 0x5 PUSH2 0x9DA SWAP2 SWAP1 PUSH2 0x1D44 JUMP JUMPDEST PUSH2 0x9E4 SWAP2 SWAP1 PUSH2 0x1DB5 JUMP JUMPDEST DUP2 PUSH2 0x9EF SWAP2 SWAP1 PUSH2 0x1DE6 JUMP JUMPDEST CALLVALUE LT ISZERO PUSH2 0xA31 JUMPI PUSH1 0x40 MLOAD PUSH32 0x8C379A000000000000000000000000000000000000000000000000000000000 DUP2 MSTORE PUSH1 0x4 ADD PUSH2 0xA28 SWAP1 PUSH2 0x1E66 JUMP JUMPDEST PUSH1 0x40 MLOAD DUP1 SWAP2 SUB SWAP1 REVERT JUMPDEST PUSH1 0x0 PUSH1 0x1 SLOAD DUP4 PUSH1 0x20 ADD MLOAD PUSH1 0x3 PUSH2 0xA47 SWAP2 SWAP1 PUSH2 0x1D44 JUMP JUMPDEST PUSH2 0xA51 SWAP2 SWAP1 PUSH2 0x1D44 JUMP JUMPDEST SWAP1 POP PUSH1 0x0 DUP2 PUSH1 0x0 DUP1 SLOAD SWAP1 PUSH2 0x100 EXP SWAP1 DIV PUSH20 0xFFFFFFFFFFFFFFFFFFFFFFFFFFFFFFFFFFFFFFFF AND PUSH20 0xFFFFFFFFFFFFFFFFFFFFFFFFFFFFFFFFFFFFFFFF AND PUSH4 0x9B56D6C9 DUP7 PUSH1 0x0 ADD MLOAD PUSH1 0x40 MLOAD DUP3 PUSH4 0xFFFFFFFF AND PUSH1 0xE0 SHL DUP2 MSTORE PUSH1 0x4 ADD PUSH2 0xAB3 SWAP2 SWAP1 PUSH2 0x18EE JUMP JUMPDEST PUSH1 0x20 PUSH1 0x40 MLOAD DUP1 DUP4 SUB DUP2 DUP7 GAS STATICCALL ISZERO DUP1 ISZERO PUSH2 0xAD0 JUMPI RETURNDATASIZE PUSH1 0x0 DUP1 RETURNDATACOPY RETURNDATASIZE PUSH1 0x0 REVERT JUMPDEST POP POP POP POP PUSH1 0x40 MLOAD RETURNDATASIZE PUSH1 0x1F NOT PUSH1 0x1F DUP3 ADD AND DUP3 ADD DUP1 PUSH1 0x40 MSTORE POP DUP2 ADD SWAP1 PUSH2 0xAF4 SWAP2 SWAP1 PUSH2 0x1E9B JUMP JUMPDEST LT ISZERO SWAP1 POP DUP1 PUSH2 0xB38 JUMPI PUSH1 0x40 MLOAD PUSH32 0x8C379A000000000000000000000000000000000000000000000000000000000 DUP2 MSTORE PUSH1 0x4 ADD PUSH2 0xB2F SWAP1 PUSH2 0x1F14 JUMP JUMPDEST PUSH1 0x40 MLOAD DUP1 SWAP2 SUB SWAP1 REVERT JUMPDEST PUSH1 0x0 PUSH1 0x40 MLOAD DUP1 PUSH1 0x80 ADD PUSH1 0x40 MSTORE DUP1 CALLER PUSH20 0xFFFFFFFFFFFFFFFFFFFFFFFFFFFFFFFFFFFFFFFF AND DUP2 MSTORE PUSH1 0x20 ADD DUP7 PUSH1 0x0 ADD MLOAD PUSH20 0xFFFFFFFFFFFFFFFFFFFFFFFFFFFFFFFFFFFFFFFF AND DUP2 MSTORE PUSH1 0x20 ADD DUP7 PUSH1 0x20 ADD MLOAD DUP2 MSTORE PUSH1 0x20 ADD DUP5 DUP2 MSTORE POP SWAP1 POP PUSH1 0x4 DUP2 SWAP1 DUP1 PUSH1 0x1 DUP2 SLOAD ADD DUP1 DUP3 SSTORE DUP1 SWAP2 POP POP PUSH1 0x1 SWAP1 SUB SWAP1 PUSH1 0x0 MSTORE PUSH1 0x20 PUSH1 0x0 KECCAK256 SWAP1 PUSH1 0x4 MUL ADD PUSH1 0x0 SWAP1 SWAP2 SWAP1 SWAP2 SWAP1 SWAP2 POP PUSH1 0x0 DUP3 ADD MLOAD DUP2 PUSH1 0x0 ADD PUSH1 0x0 PUSH2 0x100 EXP DUP2 SLOAD DUP2 PUSH20 0xFFFFFFFFFFFFFFFFFFFFFFFFFFFFFFFFFFFFFFFF MUL NOT AND SWAP1 DUP4 PUSH20 0xFFFFFFFFFFFFFFFFFFFFFFFFFFFFFFFFFFFFFFFF AND MUL OR SWAP1 SSTORE POP PUSH1 0x20 DUP3 ADD MLOAD DUP2 PUSH1 0x1 ADD PUSH1 0x0 PUSH2 0x100 EXP DUP2 SLOAD DUP2 PUSH20 0xFFFFFFFFFFFFFFFFFFFFFFFFFFFFFFFFFFFFFFFF MUL NOT AND SWAP1 DUP4 PUSH20 0xFFFFFFFFFFFFFFFFFFFFFFFFFFFFFFFFFFFFFFFF AND MUL OR SWAP1 SSTORE POP PUSH1 0x40 DUP3 ADD MLOAD DUP2 PUSH1 0x2 ADD SSTORE PUSH1 0x60 DUP3 ADD MLOAD DUP2 PUSH1 0x3 ADD SSTORE POP POP PUSH1 0x0 DUP1 SLOAD SWAP1 PUSH2 0x100 EXP SWAP1 DIV PUSH20 0xFFFFFFFFFFFFFFFFFFFFFFFFFFFFFFFFFFFFFFFF AND PUSH20 0xFFFFFFFFFFFFFFFFFFFFFFFFFFFFFFFFFFFFFFFF AND PUSH4 0x2A50D2B7 DUP7 PUSH1 0x0 ADD MLOAD DUP6 PUSH1 0x40 MLOAD DUP4 PUSH4 0xFFFFFFFF AND PUSH1 0xE0 SHL DUP2 MSTORE PUSH1 0x4 ADD PUSH2 0xCC0 SWAP3 SWAP2 SWAP1 PUSH2 0x1BD7 JUMP JUMPDEST PUSH1 0x0 PUSH1 0x40 MLOAD DUP1 DUP4 SUB DUP2 PUSH1 0x0 DUP8 DUP1 EXTCODESIZE ISZERO DUP1 ISZERO PUSH2 0xCDA JUMPI PUSH1 0x0 DUP1 REVERT JUMPDEST POP GAS CALL ISZERO DUP1 ISZERO PUSH2 0xCEE JUMPI RETURNDATASIZE PUSH1 0x0 DUP1 RETURNDATACOPY RETURNDATASIZE PUSH1 0x0 REVERT JUMPDEST POP POP POP POP PUSH1 0x0 DUP6 PUSH1 0x0 ADD MLOAD PUSH20 0xFFFFFFFFFFFFFFFFFFFFFFFFFFFFFFFFFFFFFFFF AND DUP6 PUSH1 0x40 MLOAD PUSH2 0xD1C SWAP1 PUSH2 0x1F65 JUMP JUMPDEST PUSH1 0x0 PUSH1 0x40 MLOAD DUP1 DUP4 SUB DUP2 DUP6 DUP8 GAS CALL SWAP3 POP POP POP RETURNDATASIZE DUP1 PUSH1 0x0 DUP2 EQ PUSH2 0xD59 JUMPI PUSH1 0x40 MLOAD SWAP2 POP PUSH1 0x1F NOT PUSH1 0x3F RETURNDATASIZE ADD AND DUP3 ADD PUSH1 0x40 MSTORE RETURNDATASIZE DUP3 MSTORE RETURNDATASIZE PUSH1 0x0 PUSH1 0x20 DUP5 ADD RETURNDATACOPY PUSH2 0xD5E JUMP JUMPDEST PUSH1 0x60 SWAP2 POP JUMPDEST POP POP SWAP1 POP DUP1 PUSH2 0xDA2 JUMPI PUSH1 0x40 MLOAD PUSH32 0x8C379A000000000000000000000000000000000000000000000000000000000 DUP2 MSTORE PUSH1 0x4 ADD PUSH2 0xD99 SWAP1 PUSH2 0x1FEC JUMP JUMPDEST PUSH1 0x40 MLOAD DUP1 SWAP2 SUB SWAP1 REVERT JUMPDEST PUSH1 0x5 PUSH1 0x1 PUSH1 0x5 DUP1 SLOAD SWAP1 POP PUSH2 0xDB6 SWAP2 SWAP1 PUSH2 0x1A76 JUMP JUMPDEST DUP2 SLOAD DUP2 LT PUSH2 0xDC7 JUMPI PUSH2 0xDC6 PUSH2 0x1986 JUMP JUMPDEST JUMPDEST SWAP1 PUSH1 0x0 MSTORE PUSH1 0x20 PUSH1 0x0 KECCAK256 SWAP1 PUSH1 0x4 MUL ADD PUSH1 0x5 DUP9 DUP2 SLOAD DUP2 LT PUSH2 0xDE9 JUMPI PUSH2 0xDE8 PUSH2 0x1986 JUMP JUMPDEST JUMPDEST SWAP1 PUSH1 0x0 MSTORE PUSH1 0x20 PUSH1 0x0 KECCAK256 SWAP1 PUSH1 0x4 MUL ADD PUSH1 0x0 DUP3 ADD PUSH1 0x0 SWAP1 SLOAD SWAP1 PUSH2 0x100 EXP SWAP1 DIV PUSH20 0xFFFFFFFFFFFFFFFFFFFFFFFFFFFFFFFFFFFFFFFF AND DUP2 PUSH1 0x0 ADD PUSH1 0x0 PUSH2 0x100 EXP DUP2 SLOAD DUP2 PUSH20 0xFFFFFFFFFFFFFFFFFFFFFFFFFFFFFFFFFFFFFFFF MUL NOT AND SWAP1 DUP4 PUSH20 0xFFFFFFFFFFFFFFFFFFFFFFFFFFFFFFFFFFFFFFFF AND MUL OR SWAP1 SSTORE POP PUSH1 0x1 DUP3 ADD SLOAD DUP2 PUSH1 0x1 ADD SSTORE PUSH1 0x2 DUP3 ADD SLOAD DUP2 PUSH1 0x2 ADD SSTORE PUSH1 0x3 DUP3 ADD SLOAD DUP2 PUSH1 0x3 ADD SSTORE SWAP1 POP POP PUSH1 0x5 DUP1 SLOAD DUP1 PUSH2 0xE91 JUMPI PUSH2 0xE90 PUSH2 0x1AAA JUMP JUMPDEST JUMPDEST PUSH1 0x1 SWAP1 SUB DUP2 DUP2 SWAP1 PUSH1 0x0 MSTORE PUSH1 0x20 PUSH1 0x0 KECCAK256 SWAP1 PUSH1 0x4 MUL ADD PUSH1 0x0 DUP1 DUP3 ADD PUSH1 0x0 PUSH2 0x100 EXP DUP2 SLOAD SWAP1 PUSH20 0xFFFFFFFFFFFFFFFFFFFFFFFFFFFFFFFFFFFFFFFF MUL NOT AND SWAP1 SSTORE PUSH1 0x1 DUP3 ADD PUSH1 0x0 SWAP1 SSTORE PUSH1 0x2 DUP3 ADD PUSH1 0x0 SWAP1 SSTORE PUSH1 0x3 DUP3 ADD PUSH1 0x0 SWAP1 SSTORE POP POP SWAP1 SSTORE POP POP POP POP POP POP POP JUMP JUMPDEST PUSH1 0x2 SLOAD TIMESTAMP LT PUSH2 0xF36 JUMPI PUSH1 0x40 MLOAD PUSH32 0x8C379A000000000000000000000000000000000000000000000000000000000 DUP2 MSTORE PUSH1 0x4 ADD PUSH2 0xF2D SWAP1 PUSH2 0x1C4C JUMP JUMPDEST PUSH1 0x40 MLOAD DUP1 SWAP2 SUB SWAP1 REVERT JUMPDEST PUSH1 0x0 DUP3 GT PUSH2 0xF79 JUMPI PUSH1 0x40 MLOAD PUSH32 0x8C379A000000000000000000000000000000000000000000000000000000000 DUP2 MSTORE PUSH1 0x4 ADD PUSH2 0xF70 SWAP1 PUSH2 0x2058 JUMP JUMPDEST PUSH1 0x40 MLOAD DUP1 SWAP2 SUB SWAP1 REVERT JUMPDEST PUSH1 0x0 DUP2 GT PUSH2 0xFBC JUMPI PUSH1 0x40 MLOAD PUSH32 0x8C379A000000000000000000000000000000000000000000000000000000000 DUP2 MSTORE PUSH1 0x4 ADD PUSH2 0xFB3 SWAP1 PUSH2 0x20C4 JUMP JUMPDEST PUSH1 0x40 MLOAD DUP1 SWAP2 SUB SWAP1 REVERT JUMPDEST PUSH1 0x0 PUSH1 0x40 MLOAD DUP1 PUSH1 0x80 ADD PUSH1 0x40 MSTORE DUP1 CALLER PUSH20 0xFFFFFFFFFFFFFFFFFFFFFFFFFFFFFFFFFFFFFFFF AND DUP2 MSTORE PUSH1 0x20 ADD DUP5 DUP2 MSTORE PUSH1 0x20 ADD DUP4 DUP2 MSTORE PUSH1 0x20 ADD DUP4 DUP6 PUSH1 0x3 PUSH2 0xFFF SWAP2 SWAP1 PUSH2 0x1D44 JUMP JUMPDEST PUSH2 0x1009 SWAP2 SWAP1 PUSH2 0x1D44 JUMP JUMPDEST DUP2 MSTORE POP SWAP1 POP PUSH1 0x5 DUP2 SWAP1 DUP1 PUSH1 0x1 DUP2 SLOAD ADD DUP1 DUP3 SSTORE DUP1 SWAP2 POP POP PUSH1 0x1 SWAP1 SUB SWAP1 PUSH1 0x0 MSTORE PUSH1 0x20 PUSH1 0x0 KECCAK256 SWAP1 PUSH1 0x4 MUL ADD PUSH1 0x0 SWAP1 SWAP2 SWAP1 SWAP2 SWAP1 SWAP2 POP PUSH1 0x0 DUP3 ADD MLOAD DUP2 PUSH1 0x0 ADD PUSH1 0x0 PUSH2 0x100 EXP DUP2 SLOAD DUP2 PUSH20 0xFFFFFFFFFFFFFFFFFFFFFFFFFFFFFFFFFFFFFFFF MUL NOT AND SWAP1 DUP4 PUSH20 0xFFFFFFFFFFFFFFFFFFFFFFFFFFFFFFFFFFFFFFFF AND MUL OR SWAP1 SSTORE POP PUSH1 0x20 DUP3 ADD MLOAD DUP2 PUSH1 0x1 ADD SSTORE PUSH1 0x40 DUP3 ADD MLOAD DUP2 PUSH1 0x2 ADD SSTORE PUSH1 0x60 DUP3 ADD MLOAD DUP2 PUSH1 0x3 ADD SSTORE POP POP CALLER PUSH20 0xFFFFFFFFFFFFFFFFFFFFFFFFFFFFFFFFFFFFFFFF AND PUSH32 0xBD6897D6AB8A2726FD0560037489E08C4A4907621EAEF87BDF6E8CC6AE5DADB4 DUP3 PUSH1 0x20 ADD MLOAD DUP4 PUSH1 0x40 ADD MLOAD PUSH1 0x40 MLOAD PUSH2 0x10F1 SWAP3 SWAP2 SWAP1 PUSH2 0x20E4 JUMP JUMPDEST PUSH1 0x40 MLOAD DUP1 SWAP2 SUB SWAP1 LOG2 POP POP POP JUMP JUMPDEST PUSH1 0x1 SLOAD DUP2 JUMP JUMPDEST PUSH1 0x2 SLOAD TIMESTAMP LT PUSH2 0x1148 JUMPI PUSH1 0x40 MLOAD PUSH32 0x8C379A000000000000000000000000000000000000000000000000000000000 DUP2 MSTORE PUSH1 0x4 ADD PUSH2 0x113F SWAP1 PUSH2 0x1C4C JUMP JUMPDEST PUSH1 0x40 MLOAD DUP1 SWAP2 SUB SWAP1 REVERT JUMPDEST PUSH1 0x4 DUP1 SLOAD SWAP1 POP DUP2 LT PUSH2 0x118F JUMPI PUSH1 0x40 MLOAD PUSH32 0x8C379A000000000000000000000000000000000000000000000000000000000 DUP2 MSTORE PUSH1 0x4 ADD PUSH2 0x1186 SWAP1 PUSH2 0x2159 JUMP JUMPDEST PUSH1 0x40 MLOAD DUP1 SWAP2 SUB SWAP1 REVERT JUMPDEST PUSH1 0x0 PUSH1 0x4 DUP3 DUP2 SLOAD DUP2 LT PUSH2 0x11A5 JUMPI PUSH2 0x11A4 PUSH2 0x1986 JUMP JUMPDEST JUMPDEST SWAP1 PUSH1 0x0 MSTORE PUSH1 0x20 PUSH1 0x0 KECCAK256 SWAP1 PUSH1 0x4 MUL ADD SWAP1 POP CALLER PUSH20 0xFFFFFFFFFFFFFFFFFFFFFFFFFFFFFFFFFFFFFFFF AND DUP2 PUSH1 0x0 ADD PUSH1 0x0 SWAP1 SLOAD SWAP1 PUSH2 0x100 EXP SWAP1 DIV PUSH20 0xFFFFFFFFFFFFFFFFFFFFFFFFFFFFFFFFFFFFFFFF AND PUSH20 0xFFFFFFFFFFFFFFFFFFFFFFFFFFFFFFFFFFFFFFFF AND EQ PUSH2 0x1247 JUMPI PUSH1 0x40 MLOAD PUSH32 0x8C379A000000000000000000000000000000000000000000000000000000000 DUP2 MSTORE PUSH1 0x4 ADD PUSH2 0x123E SWAP1 PUSH2 0x21C5 JUMP JUMPDEST PUSH1 0x40 MLOAD DUP1 SWAP2 SUB SWAP1 REVERT JUMPDEST PUSH1 0x0 DUP2 PUSH1 0x2 ADD SLOAD GT PUSH2 0x128E JUMPI PUSH1 0x40 MLOAD PUSH32 0x8C379A000000000000000000000000000000000000000000000000000000000 DUP2 MSTORE PUSH1 0x4 ADD PUSH2 0x1285 SWAP1 PUSH2 0x2231 JUMP JUMPDEST PUSH1 0x40 MLOAD DUP1 SWAP2 SUB SWAP1 REVERT JUMPDEST PUSH1 0x0 GASPRICE SWAP1 POP PUSH1 0x1 SLOAD DUP2 GT PUSH2 0x12D7 JUMPI PUSH1 0x40 MLOAD PUSH32 0x8C379A000000000000000000000000000000000000000000000000000000000 DUP2 MSTORE PUSH1 0x4 ADD PUSH2 0x12CE SWAP1 PUSH2 0x229D JUMP JUMPDEST PUSH1 0x40 MLOAD DUP1 SWAP2 SUB SWAP1 REVERT JUMPDEST PUSH1 0x0 PUSH1 0x1 SLOAD DUP3 PUSH2 0x12E7 SWAP2 SWAP1 PUSH2 0x1A76 JUMP JUMPDEST SWAP1 POP PUSH1 0x0 DUP4 PUSH1 0x2 ADD SLOAD DUP3 PUSH2 0x12FB SWAP2 SWAP1 PUSH2 0x1D44 JUMP JUMPDEST SWAP1 POP PUSH1 0x0 DUP5 PUSH1 0x3 ADD SLOAD DUP3 LT PUSH2 0x1316 JUMPI DUP5 PUSH1 0x3 ADD SLOAD SWAP1 POP PUSH2 0x131A JUMP JUMPDEST DUP2 SWAP1 POP JUMPDEST PUSH1 0x0 DUP2 DUP7 PUSH1 0x3 ADD SLOAD PUSH2 0x132C SWAP2 SWAP1 PUSH2 0x1A76 JUMP JUMPDEST SWAP1 POP PUSH1 0x0 DUP2 GT ISZERO PUSH2 0x13E9 JUMPI PUSH1 0x0 DUP1 SLOAD SWAP1 PUSH2 0x100 EXP SWAP1 DIV PUSH20 0xFFFFFFFFFFFFFFFFFFFFFFFFFFFFFFFFFFFFFFFF AND PUSH20 0xFFFFFFFFFFFFFFFFFFFFFFFFFFFFFFFFFFFFFFFF AND PUSH4 0x74E863AD DUP8 PUSH1 0x1 ADD PUSH1 0x0 SWAP1 SLOAD SWAP1 PUSH2 0x100 EXP SWAP1 DIV PUSH20 0xFFFFFFFFFFFFFFFFFFFFFFFFFFFFFFFFFFFFFFFF AND DUP4 PUSH1 0x40 MLOAD DUP4 PUSH4 0xFFFFFFFF AND PUSH1 0xE0 SHL DUP2 MSTORE PUSH1 0x4 ADD PUSH2 0x13B6 SWAP3 SWAP2 SWAP1 PUSH2 0x1BD7 JUMP JUMPDEST PUSH1 0x0 PUSH1 0x40 MLOAD DUP1 DUP4 SUB DUP2 PUSH1 0x0 DUP8 DUP1 EXTCODESIZE ISZERO DUP1 ISZERO PUSH2 0x13D0 JUMPI PUSH1 0x0 DUP1 REVERT JUMPDEST POP GAS CALL ISZERO DUP1 ISZERO PUSH2 0x13E4 JUMPI RETURNDATASIZE PUSH1 0x0 DUP1 RETURNDATACOPY RETURNDATASIZE PUSH1 0x0 REVERT JUMPDEST POP POP POP POP JUMPDEST PUSH1 0x0 DUP1 SLOAD SWAP1 PUSH2 0x100 EXP SWAP1 DIV PUSH20 0xFFFFFFFFFFFFFFFFFFFFFFFFFFFFFFFFFFFFFFFF AND PUSH20 0xFFFFFFFFFFFFFFFFFFFFFFFFFFFFFFFFFFFFFFFF AND PUSH4 0x66807566 CALLER DUP5 PUSH1 0x40 MLOAD DUP4 PUSH4 0xFFFFFFFF AND PUSH1 0xE0 SHL DUP2 MSTORE PUSH1 0x4 ADD PUSH2 0x1444 SWAP3 SWAP2 SWAP1 PUSH2 0x1BD7 JUMP JUMPDEST PUSH1 0x0 PUSH1 0x40 MLOAD DUP1 DUP4 SUB DUP2 PUSH1 0x0 DUP8 DUP1 EXTCODESIZE ISZERO DUP1 ISZERO PUSH2 0x145E JUMPI PUSH1 0x0 DUP1 REVERT JUMPDEST POP GAS CALL ISZERO DUP1 ISZERO PUSH2 0x1472 JUMPI RETURNDATASIZE PUSH1 0x0 DUP1 RETURNDATACOPY RETURNDATASIZE PUSH1 0x0 REVERT JUMPDEST POP POP POP POP PUSH1 0x0 DUP7 PUSH1 0x2 ADD DUP2 SWAP1 SSTORE POP PUSH1 0x0 DUP7 PUSH1 0x3 ADD DUP2 SWAP1 SSTORE POP POP POP POP POP POP POP POP JUMP JUMPDEST PUSH1 0x3 PUSH1 0x0 SWAP1 SLOAD SWAP1 PUSH2 0x100 EXP SWAP1 DIV PUSH20 0xFFFFFFFFFFFFFFFFFFFFFFFFFFFFFFFFFFFFFFFF AND DUP2 JUMP JUMPDEST PUSH1 0x0 PUSH1 0x4 DUP3 DUP2 SLOAD DUP2 LT PUSH2 0x14CF JUMPI PUSH2 0x14CE PUSH2 0x1986 JUMP JUMPDEST JUMPDEST SWAP1 PUSH1 0x0 MSTORE PUSH1 0x20 PUSH1 0x0 KECCAK256 SWAP1 PUSH1 0x4 MUL ADD SWAP1 POP PUSH1 0x0 DUP2 PUSH1 0x2 ADD SLOAD SUB PUSH2 0x14F1 JUMPI POP PUSH2 0x16D4 JUMP JUMPDEST PUSH1 0x0 GASPRICE SWAP1 POP PUSH1 0x0 PUSH1 0x1 SLOAD DUP3 PUSH2 0x1506 SWAP2 SWAP1 PUSH2 0x1A76 JUMP JUMPDEST SWAP1 POP PUSH1 0x0 DUP4 PUSH1 0x2 ADD SLOAD DUP3 PUSH2 0x151A SWAP2 SWAP1 PUSH2 0x1D44 JUMP JUMPDEST SWAP1 POP PUSH1 0x0 DUP5 PUSH1 0x3 ADD SLOAD DUP3 LT PUSH2 0x1535 JUMPI DUP5 PUSH1 0x3 ADD SLOAD SWAP1 POP PUSH2 0x1539 JUMP JUMPDEST DUP2 SWAP1 POP JUMPDEST PUSH1 0x0 DUP2 DUP7 PUSH1 0x3 ADD SLOAD PUSH2 0x154B SWAP2 SWAP1 PUSH2 0x1A76 JUMP JUMPDEST SWAP1 POP PUSH1 0x0 DUP2 GT ISZERO PUSH2 0x1608 JUMPI PUSH1 0x0 DUP1 SLOAD SWAP1 PUSH2 0x100 EXP SWAP1 DIV PUSH20 0xFFFFFFFFFFFFFFFFFFFFFFFFFFFFFFFFFFFFFFFF AND PUSH20 0xFFFFFFFFFFFFFFFFFFFFFFFFFFFFFFFFFFFFFFFF AND PUSH4 0x74E863AD DUP8 PUSH1 0x1 ADD PUSH1 0x0 SWAP1 SLOAD SWAP1 PUSH2 0x100 EXP SWAP1 DIV PUSH20 0xFFFFFFFFFFFFFFFFFFFFFFFFFFFFFFFFFFFFFFFF AND DUP4 PUSH1 0x40 MLOAD DUP4 PUSH4 0xFFFFFFFF AND PUSH1 0xE0 SHL DUP2 MSTORE PUSH1 0x4 ADD PUSH2 0x15D5 SWAP3 SWAP2 SWAP1 PUSH2 0x1BD7 JUMP JUMPDEST PUSH1 0x0 PUSH1 0x40 MLOAD DUP1 DUP4 SUB DUP2 PUSH1 0x0 DUP8 DUP1 EXTCODESIZE ISZERO DUP1 ISZERO PUSH2 0x15EF JUMPI PUSH1 0x0 DUP1 REVERT JUMPDEST POP GAS CALL ISZERO DUP1 ISZERO PUSH2 0x1603 JUMPI RETURNDATASIZE PUSH1 0x0 DUP1 RETURNDATACOPY RETURNDATASIZE PUSH1 0x0 REVERT JUMPDEST POP POP POP POP JUMPDEST PUSH1 0x0 DUP1 SLOAD SWAP1 PUSH2 0x100 EXP SWAP1 DIV PUSH20 0xFFFFFFFFFFFFFFFFFFFFFFFFFFFFFFFFFFFFFFFF AND PUSH20 0xFFFFFFFFFFFFFFFFFFFFFFFFFFFFFFFFFFFFFFFF AND PUSH4 0x66807566 DUP8 PUSH1 0x0 ADD PUSH1 0x0 SWAP1 SLOAD SWAP1 PUSH2 0x100 EXP SWAP1 DIV PUSH20 0xFFFFFFFFFFFFFFFFFFFFFFFFFFFFFFFFFFFFFFFF AND DUP5 PUSH1 0x40 MLOAD DUP4 PUSH4 0xFFFFFFFF AND PUSH1 0xE0 SHL DUP2 MSTORE PUSH1 0x4 ADD PUSH2 0x1687 SWAP3 SWAP2 SWAP1 PUSH2 0x1BD7 JUMP JUMPDEST PUSH1 0x0 PUSH1 0x40 MLOAD DUP1 DUP4 SUB DUP2 PUSH1 0x0 DUP8 DUP1 EXTCODESIZE ISZERO DUP1 ISZERO PUSH2 0x16A1 JUMPI PUSH1 0x0 DUP1 REVERT JUMPDEST POP GAS CALL ISZERO DUP1 ISZERO PUSH2 0x16B5 JUMPI RETURNDATASIZE PUSH1 0x0 DUP1 RETURNDATACOPY RETURNDATASIZE PUSH1 0x0 REVERT JUMPDEST POP POP POP POP PUSH1 0x0 DUP7 PUSH1 0x2 ADD DUP2 SWAP1 SSTORE POP PUSH1 0x0 DUP7 PUSH1 0x3 ADD DUP2 SWAP1 SSTORE POP POP POP POP POP POP POP JUMPDEST POP JUMP JUMPDEST PUSH1 0x0 PUSH20 0xFFFFFFFFFFFFFFFFFFFFFFFFFFFFFFFFFFFFFFFF DUP3 AND SWAP1 POP SWAP2 SWAP1 POP JUMP JUMPDEST PUSH1 0x0 DUP2 SWAP1 POP SWAP2 SWAP1 POP JUMP JUMPDEST PUSH1 0x0 PUSH2 0x171C PUSH2 0x1717 PUSH2 0x1712 DUP5 PUSH2 0x16D7 JUMP JUMPDEST PUSH2 0x16F7 JUMP JUMPDEST PUSH2 0x16D7 JUMP JUMPDEST SWAP1 POP SWAP2 SWAP1 POP JUMP JUMPDEST PUSH1 0x0 PUSH2 0x172E DUP3 PUSH2 0x1701 JUMP JUMPDEST SWAP1 POP SWAP2 SWAP1 POP JUMP JUMPDEST PUSH1 0x0 PUSH2 0x1740 DUP3 PUSH2 0x1723 JUMP JUMPDEST SWAP1 POP SWAP2 SWAP1 POP JUMP JUMPDEST PUSH2 0x1750 DUP2 PUSH2 0x1735 JUMP JUMPDEST DUP3 MSTORE POP POP JUMP JUMPDEST PUSH1 0x0 PUSH1 0x20 DUP3 ADD SWAP1 POP PUSH2 0x176B PUSH1 0x0 DUP4 ADD DUP5 PUSH2 0x1747 JUMP JUMPDEST SWAP3 SWAP2 POP POP JUMP JUMPDEST PUSH1 0x0 DUP2 SWAP1 POP SWAP2 SWAP1 POP JUMP JUMPDEST PUSH2 0x1784 DUP2 PUSH2 0x1771 JUMP JUMPDEST DUP3 MSTORE POP POP JUMP JUMPDEST PUSH1 0x0 PUSH1 0x20 DUP3 ADD SWAP1 POP PUSH2 0x179F PUSH1 0x0 DUP4 ADD DUP5 PUSH2 0x177B JUMP JUMPDEST SWAP3 SWAP2 POP POP JUMP JUMPDEST PUSH1 0x0 DUP1 REVERT JUMPDEST PUSH2 0x17B3 DUP2 PUSH2 0x1771 JUMP JUMPDEST DUP2 EQ PUSH2 0x17BE JUMPI PUSH1 0x0 DUP1 REVERT JUMPDEST POP JUMP JUMPDEST PUSH1 0x0 DUP2 CALLDATALOAD SWAP1 POP PUSH2 0x17D0 DUP2 PUSH2 0x17AA JUMP JUMPDEST SWAP3 SWAP2 POP POP JUMP JUMPDEST PUSH1 0x0 PUSH1 0x20 DUP3 DUP5 SUB SLT ISZERO PUSH2 0x17EC JUMPI PUSH2 0x17EB PUSH2 0x17A5 JUMP JUMPDEST JUMPDEST PUSH1 0x0 PUSH2 0x17FA DUP5 DUP3 DUP6 ADD PUSH2 0x17C1 JUMP JUMPDEST SWAP2 POP POP SWAP3 SWAP2 POP POP JUMP JUMPDEST PUSH1 0x0 PUSH2 0x180E DUP3 PUSH2 0x16D7 JUMP JUMPDEST SWAP1 POP SWAP2 SWAP1 POP JUMP JUMPDEST PUSH2 0x181E DUP2 PUSH2 0x1803 JUMP JUMPDEST DUP3 MSTORE POP POP JUMP JUMPDEST PUSH1 0x0 PUSH1 0x80 DUP3 ADD SWAP1 POP PUSH2 0x1839 PUSH1 0x0 DUP4 ADD DUP8 PUSH2 0x1815 JUMP JUMPDEST PUSH2 0x1846 PUSH1 0x20 DUP4 ADD DUP7 PUSH2 0x177B JUMP JUMPDEST PUSH2 0x1853 PUSH1 0x40 DUP4 ADD DUP6 PUSH2 0x177B JUMP JUMPDEST PUSH2 0x1860 PUSH1 0x60 DUP4 ADD DUP5 PUSH2 0x177B JUMP JUMPDEST SWAP6 SWAP5 POP POP POP POP POP JUMP JUMPDEST PUSH1 0x0 PUSH1 0x80 DUP3 ADD SWAP1 POP PUSH2 0x187E PUSH1 0x0 DUP4 ADD DUP8 PUSH2 0x1815 JUMP JUMPDEST PUSH2 0x188B PUSH1 0x20 DUP4 ADD DUP7 PUSH2 0x1815 JUMP JUMPDEST PUSH2 0x1898 PUSH1 0x40 DUP4 ADD DUP6 PUSH2 0x177B JUMP JUMPDEST PUSH2 0x18A5 PUSH1 0x60 DUP4 ADD DUP5 PUSH2 0x177B JUMP JUMPDEST SWAP6 SWAP5 POP POP POP POP POP JUMP JUMPDEST PUSH1 0x0 DUP1 PUSH1 0x40 DUP4 DUP6 SUB SLT ISZERO PUSH2 0x18C5 JUMPI PUSH2 0x18C4 PUSH2 0x17A5 JUMP JUMPDEST JUMPDEST PUSH1 0x0 PUSH2 0x18D3 DUP6 DUP3 DUP7 ADD PUSH2 0x17C1 JUMP JUMPDEST SWAP3 POP POP PUSH1 0x20 PUSH2 0x18E4 DUP6 DUP3 DUP7 ADD PUSH2 0x17C1 JUMP JUMPDEST SWAP2 POP POP SWAP3 POP SWAP3 SWAP1 POP JUMP JUMPDEST PUSH1 0x0 PUSH1 0x20 DUP3 ADD SWAP1 POP PUSH2 0x1903 PUSH1 0x0 DUP4 ADD DUP5 PUSH2 0x1815 JUMP JUMPDEST SWAP3 SWAP2 POP POP JUMP JUMPDEST PUSH1 0x0 DUP3 DUP3 MSTORE PUSH1 0x20 DUP3 ADD SWAP1 POP SWAP3 SWAP2 POP POP JUMP JUMPDEST PUSH32 0x496E76616C6964206F6666657220696E64657800000000000000000000000000 PUSH1 0x0 DUP3 ADD MSTORE POP JUMP JUMPDEST PUSH1 0x0 PUSH2 0x1950 PUSH1 0x13 DUP4 PUSH2 0x1909 JUMP JUMPDEST SWAP2 POP PUSH2 0x195B DUP3 PUSH2 0x191A JUMP JUMPDEST PUSH1 0x20 DUP3 ADD SWAP1 POP SWAP2 SWAP1 POP JUMP JUMPDEST PUSH1 0x0 PUSH1 0x20 DUP3 ADD SWAP1 POP DUP2 DUP2 SUB PUSH1 0x0 DUP4 ADD MSTORE PUSH2 0x197F DUP2 PUSH2 0x1943 JUMP JUMPDEST SWAP1 POP SWAP2 SWAP1 POP JUMP JUMPDEST PUSH32 0x4E487B7100000000000000000000000000000000000000000000000000000000 PUSH1 0x0 MSTORE PUSH1 0x32 PUSH1 0x4 MSTORE PUSH1 0x24 PUSH1 0x0 REVERT JUMPDEST PUSH32 0x4F6E6C79207468652073656C6C65722063616E2064656C657465207468697320 PUSH1 0x0 DUP3 ADD MSTORE PUSH32 0x6F66666572000000000000000000000000000000000000000000000000000000 PUSH1 0x20 DUP3 ADD MSTORE POP JUMP JUMPDEST PUSH1 0x0 PUSH2 0x1A11 PUSH1 0x25 DUP4 PUSH2 0x1909 JUMP JUMPDEST SWAP2 POP PUSH2 0x1A1C DUP3 PUSH2 0x19B5 JUMP JUMPDEST PUSH1 0x40 DUP3 ADD SWAP1 POP SWAP2 SWAP1 POP JUMP JUMPDEST PUSH1 0x0 PUSH1 0x20 DUP3 ADD SWAP1 POP DUP2 DUP2 SUB PUSH1 0x0 DUP4 ADD MSTORE PUSH2 0x1A40 DUP2 PUSH2 0x1A04 JUMP JUMPDEST SWAP1 POP SWAP2 SWAP1 POP JUMP JUMPDEST PUSH32 0x4E487B7100000000000000000000000000000000000000000000000000000000 PUSH1 0x0 MSTORE PUSH1 0x11 PUSH1 0x4 MSTORE PUSH1 0x24 PUSH1 0x0 REVERT JUMPDEST PUSH1 0x0 PUSH2 0x1A81 DUP3 PUSH2 0x1771 JUMP JUMPDEST SWAP2 POP PUSH2 0x1A8C DUP4 PUSH2 0x1771 JUMP JUMPDEST SWAP3 POP DUP3 DUP3 SUB SWAP1 POP DUP2 DUP2 GT ISZERO PUSH2 0x1AA4 JUMPI PUSH2 0x1AA3 PUSH2 0x1A47 JUMP JUMPDEST JUMPDEST SWAP3 SWAP2 POP POP JUMP JUMPDEST PUSH32 0x4E487B7100000000000000000000000000000000000000000000000000000000 PUSH1 0x0 MSTORE PUSH1 0x31 PUSH1 0x4 MSTORE PUSH1 0x24 PUSH1 0x0 REVERT JUMPDEST PUSH32 0x4F6E6C79207468652061646D696E2063616E2063616C6C20746869732066756E PUSH1 0x0 DUP3 ADD MSTORE PUSH32 0x6374696F6E000000000000000000000000000000000000000000000000000000 PUSH1 0x20 DUP3 ADD MSTORE POP JUMP JUMPDEST PUSH1 0x0 PUSH2 0x1B35 PUSH1 0x25 DUP4 PUSH2 0x1909 JUMP JUMPDEST SWAP2 POP PUSH2 0x1B40 DUP3 PUSH2 0x1AD9 JUMP JUMPDEST PUSH1 0x40 DUP3 ADD SWAP1 POP SWAP2 SWAP1 POP JUMP JUMPDEST PUSH1 0x0 PUSH1 0x20 DUP3 ADD SWAP1 POP DUP2 DUP2 SUB PUSH1 0x0 DUP4 ADD MSTORE PUSH2 0x1B64 DUP2 PUSH2 0x1B28 JUMP JUMPDEST SWAP1 POP SWAP2 SWAP1 POP JUMP JUMPDEST PUSH32 0x4F7074696F6E20686173206E6F74206578706972656420796574000000000000 PUSH1 0x0 DUP3 ADD MSTORE POP JUMP JUMPDEST PUSH1 0x0 PUSH2 0x1BA1 PUSH1 0x1A DUP4 PUSH2 0x1909 JUMP JUMPDEST SWAP2 POP PUSH2 0x1BAC DUP3 PUSH2 0x1B6B JUMP JUMPDEST PUSH1 0x20 DUP3 ADD SWAP1 POP SWAP2 SWAP1 POP JUMP JUMPDEST PUSH1 0x0 PUSH1 0x20 DUP3 ADD SWAP1 POP DUP2 DUP2 SUB PUSH1 0x0 DUP4 ADD MSTORE PUSH2 0x1BD0 DUP2 PUSH2 0x1B94 JUMP JUMPDEST SWAP1 POP SWAP2 SWAP1 POP JUMP JUMPDEST PUSH1 0x0 PUSH1 0x40 DUP3 ADD SWAP1 POP PUSH2 0x1BEC PUSH1 0x0 DUP4 ADD DUP6 PUSH2 0x1815 JUMP JUMPDEST PUSH2 0x1BF9 PUSH1 0x20 DUP4 ADD DUP5 PUSH2 0x177B JUMP JUMPDEST SWAP4 SWAP3 POP POP POP JUMP JUMPDEST PUSH32 0x4F7074696F6E2068617320657870697265640000000000000000000000000000 PUSH1 0x0 DUP3 ADD MSTORE POP JUMP JUMPDEST PUSH1 0x0 PUSH2 0x1C36 PUSH1 0x12 DUP4 PUSH2 0x1909 JUMP JUMPDEST SWAP2 POP PUSH2 0x1C41 DUP3 PUSH2 0x1C00 JUMP JUMPDEST PUSH1 0x20 DUP3 ADD SWAP1 POP SWAP2 SWAP1 POP JUMP JUMPDEST PUSH1 0x0 PUSH1 0x20 DUP3 ADD SWAP1 POP DUP2 DUP2 SUB PUSH1 0x0 DUP4 ADD MSTORE PUSH2 0x1C65 DUP2 PUSH2 0x1C29 JUMP JUMPDEST SWAP1 POP SWAP2 SWAP1 POP JUMP JUMPDEST PUSH32 0x4D7573742073656E642045544820746F20627579206F66666572730000000000 PUSH1 0x0 DUP3 ADD MSTORE POP JUMP JUMPDEST PUSH1 0x0 PUSH2 0x1CA2 PUSH1 0x1B DUP4 PUSH2 0x1909 JUMP JUMPDEST SWAP2 POP PUSH2 0x1CAD DUP3 PUSH2 0x1C6C JUMP JUMPDEST PUSH1 0x20 DUP3 ADD SWAP1 POP SWAP2 SWAP1 POP JUMP JUMPDEST PUSH1 0x0 PUSH1 0x20 DUP3 ADD SWAP1 POP DUP2 DUP2 SUB PUSH1 0x0 DUP4 ADD MSTORE PUSH2 0x1CD1 DUP2 PUSH2 0x1C95 JUMP JUMPDEST SWAP1 POP SWAP2 SWAP1 POP JUMP JUMPDEST PUSH32 0x4F6666657220686173206E6F20756E697473206C656674000000000000000000 PUSH1 0x0 DUP3 ADD MSTORE POP JUMP JUMPDEST PUSH1 0x0 PUSH2 0x1D0E PUSH1 0x17 DUP4 PUSH2 0x1909 JUMP JUMPDEST SWAP2 POP PUSH2 0x1D19 DUP3 PUSH2 0x1CD8 JUMP JUMPDEST PUSH1 0x20 DUP3 ADD SWAP1 POP SWAP2 SWAP1 POP JUMP JUMPDEST PUSH1 0x0 PUSH1 0x20 DUP3 ADD SWAP1 POP DUP2 DUP2 SUB PUSH1 0x0 DUP4 ADD MSTORE PUSH2 0x1D3D DUP2 PUSH2 0x1D01 JUMP JUMPDEST SWAP1 POP SWAP2 SWAP1 POP JUMP JUMPDEST PUSH1 0x0 PUSH2 0x1D4F DUP3 PUSH2 0x1771 JUMP JUMPDEST SWAP2 POP PUSH2 0x1D5A DUP4 PUSH2 0x1771 JUMP JUMPDEST SWAP3 POP DUP3 DUP3 MUL PUSH2 0x1D68 DUP2 PUSH2 0x1771 JUMP JUMPDEST SWAP2 POP DUP3 DUP3 DIV DUP5 EQ DUP4 ISZERO OR PUSH2 0x1D7F JUMPI PUSH2 0x1D7E PUSH2 0x1A47 JUMP JUMPDEST JUMPDEST POP SWAP3 SWAP2 POP POP JUMP JUMPDEST PUSH32 0x4E487B7100000000000000000000000000000000000000000000000000000000 PUSH1 0x0 MSTORE PUSH1 0x12 PUSH1 0x4 MSTORE PUSH1 0x24 PUSH1 0x0 REVERT JUMPDEST PUSH1 0x0 PUSH2 0x1DC0 DUP3 PUSH2 0x1771 JUMP JUMPDEST SWAP2 POP PUSH2 0x1DCB DUP4 PUSH2 0x1771 JUMP JUMPDEST SWAP3 POP DUP3 PUSH2 0x1DDB JUMPI PUSH2 0x1DDA PUSH2 0x1D86 JUMP JUMPDEST JUMPDEST DUP3 DUP3 DIV SWAP1 POP SWAP3 SWAP2 POP POP JUMP JUMPDEST PUSH1 0x0 PUSH2 0x1DF1 DUP3 PUSH2 0x1771 JUMP JUMPDEST SWAP2 POP PUSH2 0x1DFC DUP4 PUSH2 0x1771 JUMP JUMPDEST SWAP3 POP DUP3 DUP3 ADD SWAP1 POP DUP1 DUP3 GT ISZERO PUSH2 0x1E14 JUMPI PUSH2 0x1E13 PUSH2 0x1A47 JUMP JUMPDEST JUMPDEST SWAP3 SWAP2 POP POP JUMP JUMPDEST PUSH32 0x496E73756666696369656E74204554482073656E740000000000000000000000 PUSH1 0x0 DUP3 ADD MSTORE POP JUMP JUMPDEST PUSH1 0x0 PUSH2 0x1E50 PUSH1 0x15 DUP4 PUSH2 0x1909 JUMP JUMPDEST SWAP2 POP PUSH2 0x1E5B DUP3 PUSH2 0x1E1A JUMP JUMPDEST PUSH1 0x20 DUP3 ADD SWAP1 POP SWAP2 SWAP1 POP JUMP JUMPDEST PUSH1 0x0 PUSH1 0x20 DUP3 ADD SWAP1 POP DUP2 DUP2 SUB PUSH1 0x0 DUP4 ADD MSTORE PUSH2 0x1E7F DUP2 PUSH2 0x1E43 JUMP JUMPDEST SWAP1 POP SWAP2 SWAP1 POP JUMP JUMPDEST PUSH1 0x0 DUP2 MLOAD SWAP1 POP PUSH2 0x1E95 DUP2 PUSH2 0x17AA JUMP JUMPDEST SWAP3 SWAP2 POP POP JUMP JUMPDEST PUSH1 0x0 PUSH1 0x20 DUP3 DUP5 SUB SLT ISZERO PUSH2 0x1EB1 JUMPI PUSH2 0x1EB0 PUSH2 0x17A5 JUMP JUMPDEST JUMPDEST PUSH1 0x0 PUSH2 0x1EBF DUP5 DUP3 DUP6 ADD PUSH2 0x1E86 JUMP JUMPDEST SWAP2 POP POP SWAP3 SWAP2 POP POP JUMP JUMPDEST PUSH32 0x496E73756666696369656E742073656C6C657220636F6C6C61746572616C0000 PUSH1 0x0 DUP3 ADD MSTORE POP JUMP JUMPDEST PUSH1 0x0 PUSH2 0x1EFE PUSH1 0x1E DUP4 PUSH2 0x1909 JUMP JUMPDEST SWAP2 POP PUSH2 0x1F09 DUP3 PUSH2 0x1EC8 JUMP JUMPDEST PUSH1 0x20 DUP3 ADD SWAP1 POP SWAP2 SWAP1 POP JUMP JUMPDEST PUSH1 0x0 PUSH1 0x20 DUP3 ADD SWAP1 POP DUP2 DUP2 SUB PUSH1 0x0 DUP4 ADD MSTORE PUSH2 0x1F2D DUP2 PUSH2 0x1EF1 JUMP JUMPDEST SWAP1 POP SWAP2 SWAP1 POP JUMP JUMPDEST PUSH1 0x0 DUP2 SWAP1 POP SWAP3 SWAP2 POP POP JUMP JUMPDEST POP JUMP JUMPDEST PUSH1 0x0 PUSH2 0x1F4F PUSH1 0x0 DUP4 PUSH2 0x1F34 JUMP JUMPDEST SWAP2 POP PUSH2 0x1F5A DUP3 PUSH2 0x1F3F JUMP JUMPDEST PUSH1 0x0 DUP3 ADD SWAP1 POP SWAP2 SWAP1 POP JUMP JUMPDEST PUSH1 0x0 PUSH2 0x1F70 DUP3 PUSH2 0x1F42 JUMP JUMPDEST SWAP2 POP DUP2 SWAP1 POP SWAP2 SWAP1 POP JUMP JUMPDEST PUSH32 0x4661696C656420746F207472616E73666572207072656D69756D20746F207365 PUSH1 0x0 DUP3 ADD MSTORE PUSH32 0x6C6C657200000000000000000000000000000000000000000000000000000000 PUSH1 0x20 DUP3 ADD MSTORE POP JUMP JUMPDEST PUSH1 0x0 PUSH2 0x1FD6 PUSH1 0x24 DUP4 PUSH2 0x1909 JUMP JUMPDEST SWAP2 POP PUSH2 0x1FE1 DUP3 PUSH2 0x1F7A JUMP JUMPDEST PUSH1 0x40 DUP3 ADD SWAP1 POP SWAP2 SWAP1 POP JUMP JUMPDEST PUSH1 0x0 PUSH1 0x20 DUP3 ADD SWAP1 POP DUP2 DUP2 SUB PUSH1 0x0 DUP4 ADD MSTORE PUSH2 0x2005 DUP2 PUSH2 0x1FC9 JUMP JUMPDEST SWAP1 POP SWAP2 SWAP1 POP JUMP JUMPDEST PUSH32 0x416D6F756E74206D7573742062652067726561746572207468616E207A65726F PUSH1 0x0 DUP3 ADD MSTORE POP JUMP JUMPDEST PUSH1 0x0 PUSH2 0x2042 PUSH1 0x20 DUP4 PUSH2 0x1909 JUMP JUMPDEST SWAP2 POP PUSH2 0x204D DUP3 PUSH2 0x200C JUMP JUMPDEST PUSH1 0x20 DUP3 ADD SWAP1 POP SWAP2 SWAP1 POP JUMP JUMPDEST PUSH1 0x0 PUSH1 0x20 DUP3 ADD SWAP1 POP DUP2 DUP2 SUB PUSH1 0x0 DUP4 ADD MSTORE PUSH2 0x2071 DUP2 PUSH2 0x2035 JUMP JUMPDEST SWAP1 POP SWAP2 SWAP1 POP JUMP JUMPDEST PUSH32 0x5072696365206D7573742062652067726561746572207468616E207A65726F00 PUSH1 0x0 DUP3 ADD MSTORE POP JUMP JUMPDEST PUSH1 0x0 PUSH2 0x20AE PUSH1 0x1F DUP4 PUSH2 0x1909 JUMP JUMPDEST SWAP2 POP PUSH2 0x20B9 DUP3 PUSH2 0x2078 JUMP JUMPDEST PUSH1 0x20 DUP3 ADD SWAP1 POP SWAP2 SWAP1 POP JUMP JUMPDEST PUSH1 0x0 PUSH1 0x20 DUP3 ADD SWAP1 POP DUP2 DUP2 SUB PUSH1 0x0 DUP4 ADD MSTORE PUSH2 0x20DD DUP2 PUSH2 0x20A1 JUMP JUMPDEST SWAP1 POP SWAP2 SWAP1 POP JUMP JUMPDEST PUSH1 0x0 PUSH1 0x40 DUP3 ADD SWAP1 POP PUSH2 0x20F9 PUSH1 0x0 DUP4 ADD DUP6 PUSH2 0x177B JUMP JUMPDEST PUSH2 0x2106 PUSH1 0x20 DUP4 ADD DUP5 PUSH2 0x177B JUMP JUMPDEST SWAP4 SWAP3 POP POP POP JUMP JUMPDEST PUSH32 0x496E76616C696420706F736974696F6E20696E64657800000000000000000000 PUSH1 0x0 DUP3 ADD MSTORE POP JUMP JUMPDEST PUSH1 0x0 PUSH2 0x2143 PUSH1 0x16 DUP4 PUSH2 0x1909 JUMP JUMPDEST SWAP2 POP PUSH2 0x214E DUP3 PUSH2 0x210D JUMP JUMPDEST PUSH1 0x20 DUP3 ADD SWAP1 POP SWAP2 SWAP1 POP JUMP JUMPDEST PUSH1 0x0 PUSH1 0x20 DUP3 ADD SWAP1 POP DUP2 DUP2 SUB PUSH1 0x0 DUP4 ADD MSTORE PUSH2 0x2172 DUP2 PUSH2 0x2136 JUMP JUMPDEST SWAP1 POP SWAP2 SWAP1 POP JUMP JUMPDEST PUSH32 0x4F6E6C792062757965722063616E206578657263697365000000000000000000 PUSH1 0x0 DUP3 ADD MSTORE POP JUMP JUMPDEST PUSH1 0x0 PUSH2 0x21AF PUSH1 0x17 DUP4 PUSH2 0x1909 JUMP JUMPDEST SWAP2 POP PUSH2 0x21BA DUP3 PUSH2 0x2179 JUMP JUMPDEST PUSH1 0x20 DUP3 ADD SWAP1 POP SWAP2 SWAP1 POP JUMP JUMPDEST PUSH1 0x0 PUSH1 0x20 DUP3 ADD SWAP1 POP DUP2 DUP2 SUB PUSH1 0x0 DUP4 ADD MSTORE PUSH2 0x21DE DUP2 PUSH2 0x21A2 JUMP JUMPDEST SWAP1 POP SWAP2 SWAP1 POP JUMP JUMPDEST PUSH32 0x506F736974696F6E20616C726561647920657865726369736564000000000000 PUSH1 0x0 DUP3 ADD MSTORE POP JUMP JUMPDEST PUSH1 0x0 PUSH2 0x221B PUSH1 0x1A DUP4 PUSH2 0x1909 JUMP JUMPDEST SWAP2 POP PUSH2 0x2226 DUP3 PUSH2 0x21E5 JUMP JUMPDEST PUSH1 0x20 DUP3 ADD SWAP1 POP SWAP2 SWAP1 POP JUMP JUMPDEST PUSH1 0x0 PUSH1 0x20 DUP3 ADD SWAP1 POP DUP2 DUP2 SUB PUSH1 0x0 DUP4 ADD MSTORE PUSH2 0x224A DUP2 PUSH2 0x220E JUMP JUMPDEST SWAP1 POP SWAP2 SWAP1 POP JUMP JUMPDEST PUSH32 0x4F7074696F6E206E6F742049544D000000000000000000000000000000000000 PUSH1 0x0 DUP3 ADD MSTORE POP JUMP JUMPDEST PUSH1 0x0 PUSH2 0x2287 PUSH1 0xE DUP4 PUSH2 0x1909 JUMP JUMPDEST SWAP2 POP PUSH2 0x2292 DUP3 PUSH2 0x2251 JUMP JUMPDEST PUSH1 0x20 DUP3 ADD SWAP1 POP SWAP2 SWAP1 POP JUMP JUMPDEST PUSH1 0x0 PUSH1 0x20 DUP3 ADD SWAP1 POP DUP2 DUP2 SUB PUSH1 0x0 DUP4 ADD MSTORE PUSH2 0x22B6 DUP2 PUSH2 0x227A JUMP JUMPDEST SWAP1 POP SWAP2 SWAP1 POP JUMP INVALID LOG2 PUSH5 0x6970667358 0x22 SLT KECCAK256 0xD1 PUSH16 0x8EB1B55BB986B5739FBEEDEA06D78FF8 KECCAK256 0xE3 MULMOD DIV EXP 0xB3 OR 0x1E 0xEA PUSH10 0x7FDA88E264736F6C6343 STOP ADDMOD BYTE STOP CALLER "},"methodIdentifiers":{"buyOffer(uint256)":"9ecce700","collateralManager()":"23be345c","deleteOffer(uint256)":"74268ff2","exercise(uint256)":"b07f0a41","expiration()":"4665096d","factory()":"c45a0155","offers(uint256)":"8a72ea6a","placeOffer(uint256,uint256)":"a95902b2","positions(uint256)":"99fbab88","settlePositions()":"9b10d169","strike()":"ad8f5008"}}}}}