{
  "_format": "hh-sol-artifact-1",
  "contractName": "GasPriceOptionsFactory",
  "sourceName": "contracts/ContractFactory.sol",
  "abi": [
    {
      "inputs": [],
      "stateMutability": "nonpayable",
      "type": "constructor"
    },
    {
      "inputs": [
        {
          "internalType": "uint256",
          "name": "",
          "type": "uint256"
        }
      ],
      "name": "allOptions",
      "outputs": [
        {
          "internalType": "address",
          "name": "",
          "type": "address"
        }
      ],
      "stateMutability": "view",
      "type": "function"
    },
    {
      "inputs": [],
      "name": "collateralManager",
      "outputs": [
        {
          "internalType": "contract CollateralManager",
          "name": "",
          "type": "address"
        }
      ],
      "stateMutability": "view",
      "type": "function"
    },
    {
      "inputs": [
        {
          "internalType": "uint256",
          "name": "_strike",
          "type": "uint256"
        },
        {
          "internalType": "uint256",
          "name": "_expiration",
          "type": "uint256"
        }
      ],
      "name": "createOption",
      "outputs": [
        {
          "internalType": "address",
          "name": "",
          "type": "address"
        }
      ],
      "stateMutability": "nonpayable",
      "type": "function"
    },
    {
      "inputs": [],
      "name": "getOptionsCount",
      "outputs": [
        {
          "internalType": "uint256",
          "name": "",
          "type": "uint256"
        }
      ],
      "stateMutability": "view",
      "type": "function"
    }
  ],
  "bytecode": "0x608060405234801561001057600080fd5b503060405161001e9061008a565b61002891906100d8565b604051809103906000f080158015610044573d6000803e3d6000fd5b50600160006101000a81548173ffffffffffffffffffffffffffffffffffffffff021916908373ffffffffffffffffffffffffffffffffffffffff1602179055506100f3565b610f2580612c3683390190565b600073ffffffffffffffffffffffffffffffffffffffff82169050919050565b60006100c282610097565b9050919050565b6100d2816100b7565b82525050565b60006020820190506100ed60008301846100c9565b92915050565b612b34806101026000396000f3fe608060405234801561001057600080fd5b506004361061004c5760003560e01c806323be345c146100515780638ea745b81461006f578063946f0ecc1461009f578063a4d4334a146100cf575b600080fd5b6100596100ed565b6040516100669190610388565b60405180910390f35b610089600480360381019061008491906103de565b610113565b604051610096919061042c565b60405180910390f35b6100b960048036038101906100b49190610447565b610152565b6040516100c6919061042c565b60405180910390f35b6100d76102f0565b6040516100e49190610496565b60405180910390f35b600160009054906101000a900473ffffffffffffffffffffffffffffffffffffffff1681565b6000818154811061012357600080fd5b906000526020600020016000915054906101000a900473ffffffffffffffffffffffffffffffffffffffff1681565b6000428211610196576040517f08c379a000000000000000000000000000000000000000000000000000000000815260040161018d9061050e565b60405180910390fd5b6000838330600160009054906101000a900473ffffffffffffffffffffffffffffffffffffffff166040516101ca906102fc565b6101d7949392919061052e565b604051809103906000f0801580156101f3573d6000803e3d6000fd5b5090506000819080600181540180825580915050600190039060005260206000200160009091909190916101000a81548173ffffffffffffffffffffffffffffffffffffffff021916908373ffffffffffffffffffffffffffffffffffffffff160217905550600160009054906101000a900473ffffffffffffffffffffffffffffffffffffffff1673ffffffffffffffffffffffffffffffffffffffff1663f30c2560826040518263ffffffff1660e01b81526004016102b4919061042c565b600060405180830381600087803b1580156102ce57600080fd5b505af11580156102e2573d6000803e3d6000fd5b505050508091505092915050565b60008080549050905090565b61258b8061057483390190565b600073ffffffffffffffffffffffffffffffffffffffff82169050919050565b6000819050919050565b600061034e61034961034484610309565b610329565b610309565b9050919050565b600061036082610333565b9050919050565b600061037282610355565b9050919050565b61038281610367565b82525050565b600060208201905061039d6000830184610379565b92915050565b600080fd5b6000819050919050565b6103bb816103a8565b81146103c657600080fd5b50565b6000813590506103d8816103b2565b92915050565b6000602082840312156103f4576103f36103a3565b5b6000610402848285016103c9565b91505092915050565b600061041682610309565b9050919050565b6104268161040b565b82525050565b6000602082019050610441600083018461041d565b92915050565b6000806040838503121561045e5761045d6103a3565b5b600061046c858286016103c9565b925050602061047d858286016103c9565b9150509250929050565b610490816103a8565b82525050565b60006020820190506104ab6000830184610487565b92915050565b600082825260208201905092915050565b7f45787069726174696f6e206d75737420626520696e2074686520667574757265600082015250565b60006104f86020836104b1565b9150610503826104c2565b602082019050919050565b60006020820190508181036000830152610527816104eb565b9050919050565b60006080820190506105436000830187610487565b6105506020830186610487565b61055d604083018561041d565b61056a606083018461041d565b9594505050505056fe608060405234801561001057600080fd5b5060405161258b38038061258b833981810160405281019061003291906101a5565b428311610074576040517f08c379a000000000000000000000000000000000000000000000000000000000815260040161006b90610269565b60405180910390fd5b836001819055508260028190555081600360006101000a81548173ffffffffffffffffffffffffffffffffffffffff021916908373ffffffffffffffffffffffffffffffffffffffff160217905550806000806101000a81548173ffffffffffffffffffffffffffffffffffffffff021916908373ffffffffffffffffffffffffffffffffffffffff16021790555050505050610289565b600080fd5b6000819050919050565b61012481610111565b811461012f57600080fd5b50565b6000815190506101418161011b565b92915050565b600073ffffffffffffffffffffffffffffffffffffffff82169050919050565b600061017282610147565b9050919050565b61018281610167565b811461018d57600080fd5b50565b60008151905061019f81610179565b92915050565b600080600080608085870312156101bf576101be61010c565b5b60006101cd87828801610132565b94505060206101de87828801610132565b93505060406101ef87828801610190565b925050606061020087828801610190565b91505092959194509250565b600082825260208201905092915050565b7f45787069726174696f6e206d75737420626520696e2074686520667574757265600082015250565b600061025360208361020c565b915061025e8261021d565b602082019050919050565b6000602082019050818103600083015261028281610246565b9050919050565b6122f3806102986000396000f3fe6080604052600436106100a05760003560e01c80639b10d169116100645780639b10d169146101ab5780639ecce700146101c2578063a95902b2146101de578063ad8f500814610207578063b07f0a4114610232578063c45a01551461025b576100a7565b806323be345c146100ac5780634665096d146100d757806374268ff2146101025780638a72ea6a1461012b57806399fbab881461016b576100a7565b366100a757005b600080fd5b3480156100b857600080fd5b506100c1610286565b6040516100ce9190611756565b60405180910390f35b3480156100e357600080fd5b506100ec6102aa565b6040516100f9919061178a565b60405180910390f35b34801561010e57600080fd5b50610129600480360381019061012491906117d6565b6102b0565b005b34801561013757600080fd5b50610152600480360381019061014d91906117d6565b610542565b6040516101629493929190611824565b60405180910390f35b34801561017757600080fd5b50610192600480360381019061018d91906117d6565b6105a2565b6040516101a29493929190611869565b60405180910390f35b3480156101b757600080fd5b506101c0610622565b005b6101dc60048036038101906101d791906117d6565b61083f565b005b3480156101ea57600080fd5b50610205600480360381019061020091906118ae565b610ef2565b005b34801561021357600080fd5b5061021c6110fe565b604051610229919061178a565b60405180910390f35b34801561023e57600080fd5b50610259600480360381019061025491906117d6565b611104565b005b34801561026757600080fd5b50610270611493565b60405161027d91906118ee565b60405180910390f35b60008054906101000a900473ffffffffffffffffffffffffffffffffffffffff1681565b60025481565b60058054905081106102f7576040517f08c379a00000000000000000000000000000000000000000000000000000000081526004016102ee90611966565b60405180910390fd5b3373ffffffffffffffffffffffffffffffffffffffff166005828154811061032257610321611986565b5b906000526020600020906004020160000160009054906101000a900473ffffffffffffffffffffffffffffffffffffffff1673ffffffffffffffffffffffffffffffffffffffff16146103aa576040517f08c379a00000000000000000000000000000000000000000000000000000000081526004016103a190611a27565b60405180910390fd5b3373ffffffffffffffffffffffffffffffffffffffff167fc21fa646cfa9effb4f4abd39a852dd64181309897fedd3e19235b87e685f3bc4826040516103f0919061178a565b60405180910390a26005600160058054905061040c9190611a76565b8154811061041d5761041c611986565b5b90600052602060002090600402016005828154811061043f5761043e611986565b5b90600052602060002090600402016000820160009054906101000a900473ffffffffffffffffffffffffffffffffffffffff168160000160006101000a81548173ffffffffffffffffffffffffffffffffffffffff021916908373ffffffffffffffffffffffffffffffffffffffff16021790555060018201548160010155600282015481600201556003820154816003015590505060058054806104e7576104e6611aaa565b5b6001900381819060005260206000209060040201600080820160006101000a81549073ffffffffffffffffffffffffffffffffffffffff02191690556001820160009055600282016000905560038201600090555050905550565b6005818154811061055257600080fd5b90600052602060002090600402016000915090508060000160009054906101000a900473ffffffffffffffffffffffffffffffffffffffff16908060010154908060020154908060030154905084565b600481815481106105b257600080fd5b90600052602060002090600402016000915090508060000160009054906101000a900473ffffffffffffffffffffffffffffffffffffffff16908060010160009054906101000a900473ffffffffffffffffffffffffffffffffffffffff16908060020154908060030154905084565b600073ffffffffffffffffffffffffffffffffffffffff163373ffffffffffffffffffffffffffffffffffffffff1614610691576040517f08c379a000000000000000000000000000000000000000000000000000000000815260040161068890611b4b565b60405180910390fd5b6002544210156106d6576040517f08c379a00000000000000000000000000000000000000000000000000000000081526004016106cd90611bb7565b60405180910390fd5b60003a905080600154106108145760005b60048054905081101561080d5760006004828154811061070a57610709611986565b5b906000526020600020906004020190506000816002015411156107ff576000816003015411156107ea5760008054906101000a900473ffffffffffffffffffffffffffffffffffffffff1673ffffffffffffffffffffffffffffffffffffffff166374e863ad8260010160009054906101000a900473ffffffffffffffffffffffffffffffffffffffff1683600301546040518363ffffffff1660e01b81526004016107b7929190611bd7565b600060405180830381600087803b1580156107d157600080fd5b505af11580156107e5573d6000803e3d6000fd5b505050505b60008160020181905550600081600301819055505b5080806001019150506106e7565b505061083d565b60005b60048054905081101561083a5761082d816114b9565b8080600101915050610817565b50505b565b6002544210610883576040517f08c379a000000000000000000000000000000000000000000000000000000000815260040161087a90611c4c565b60405180910390fd5b600034116108c6576040517f08c379a00000000000000000000000000000000000000000000000000000000081526004016108bd90611cb8565b60405180910390fd5b6000600582815481106108dc576108db611986565b5b90600052602060002090600402016040518060800160405290816000820160009054906101000a900473ffffffffffffffffffffffffffffffffffffffff1673ffffffffffffffffffffffffffffffffffffffff1673ffffffffffffffffffffffffffffffffffffffff1681526020016001820154815260200160028201548152602001600382015481525050905060008160200151116109b2576040517f08c379a00000000000000000000000000000000000000000000000000000000081526004016109a990611d24565b60405180910390fd5b6000816040015182602001516109c89190611d44565b90506103e88160056109da9190611d44565b6109e49190611db5565b816109ef9190611de6565b341015610a31576040517f08c379a0000000000000000000000000000000000000000000000000000000008152600401610a2890611e66565b60405180910390fd5b600060015483602001516003610a479190611d44565b610a519190611d44565b905060008160008054906101000a900473ffffffffffffffffffffffffffffffffffffffff1673ffffffffffffffffffffffffffffffffffffffff16639b56d6c986600001516040518263ffffffff1660e01b8152600401610ab391906118ee565b602060405180830381865afa158015610ad0573d6000803e3d6000fd5b505050506040513d601f19601f82011682018060405250810190610af49190611e9b565b1015905080610b38576040517f08c379a0000000000000000000000000000000000000000000000000000000008152600401610b2f90611f14565b60405180910390fd5b600060405180608001604052803373ffffffffffffffffffffffffffffffffffffffff168152602001866000015173ffffffffffffffffffffffffffffffffffffffff16815260200186602001518152602001848152509050600481908060018154018082558091505060019003906000526020600020906004020160009091909190915060008201518160000160006101000a81548173ffffffffffffffffffffffffffffffffffffffff021916908373ffffffffffffffffffffffffffffffffffffffff16021790555060208201518160010160006101000a81548173ffffffffffffffffffffffffffffffffffffffff021916908373ffffffffffffffffffffffffffffffffffffffff1602179055506040820151816002015560608201518160030155505060008054906101000a900473ffffffffffffffffffffffffffffffffffffffff1673ffffffffffffffffffffffffffffffffffffffff16632a50d2b78660000151856040518363ffffffff1660e01b8152600401610cc0929190611bd7565b600060405180830381600087803b158015610cda57600080fd5b505af1158015610cee573d6000803e3d6000fd5b505050506000856000015173ffffffffffffffffffffffffffffffffffffffff1685604051610d1c90611f65565b60006040518083038185875af1925050503d8060008114610d59576040519150601f19603f3d011682016040523d82523d6000602084013e610d5e565b606091505b5050905080610da2576040517f08c379a0000000000000000000000000000000000000000000000000000000008152600401610d9990611fec565b60405180910390fd5b60056001600580549050610db69190611a76565b81548110610dc757610dc6611986565b5b906000526020600020906004020160058881548110610de957610de8611986565b5b90600052602060002090600402016000820160009054906101000a900473ffffffffffffffffffffffffffffffffffffffff168160000160006101000a81548173ffffffffffffffffffffffffffffffffffffffff021916908373ffffffffffffffffffffffffffffffffffffffff1602179055506001820154816001015560028201548160020155600382015481600301559050506005805480610e9157610e90611aaa565b5b6001900381819060005260206000209060040201600080820160006101000a81549073ffffffffffffffffffffffffffffffffffffffff02191690556001820160009055600282016000905560038201600090555050905550505050505050565b6002544210610f36576040517f08c379a0000000000000000000000000000000000000000000000000000000008152600401610f2d90611c4c565b60405180910390fd5b60008211610f79576040517f08c379a0000000000000000000000000000000000000000000000000000000008152600401610f7090612058565b60405180910390fd5b60008111610fbc576040517f08c379a0000000000000000000000000000000000000000000000000000000008152600401610fb3906120c4565b60405180910390fd5b600060405180608001604052803373ffffffffffffffffffffffffffffffffffffffff16815260200184815260200183815260200183856003610fff9190611d44565b6110099190611d44565b8152509050600581908060018154018082558091505060019003906000526020600020906004020160009091909190915060008201518160000160006101000a81548173ffffffffffffffffffffffffffffffffffffffff021916908373ffffffffffffffffffffffffffffffffffffffff16021790555060208201518160010155604082015181600201556060820151816003015550503373ffffffffffffffffffffffffffffffffffffffff167fbd6897d6ab8a2726fd0560037489e08c4a4907621eaef87bdf6e8cc6ae5dadb4826020015183604001516040516110f19291906120e4565b60405180910390a2505050565b60015481565b6002544210611148576040517f08c379a000000000000000000000000000000000000000000000000000000000815260040161113f90611c4c565b60405180910390fd5b600480549050811061118f576040517f08c379a000000000000000000000000000000000000000000000000000000000815260040161118690612159565b60405180910390fd5b6000600482815481106111a5576111a4611986565b5b906000526020600020906004020190503373ffffffffffffffffffffffffffffffffffffffff168160000160009054906101000a900473ffffffffffffffffffffffffffffffffffffffff1673ffffffffffffffffffffffffffffffffffffffff1614611247576040517f08c379a000000000000000000000000000000000000000000000000000000000815260040161123e906121c5565b60405180910390fd5b600081600201541161128e576040517f08c379a000000000000000000000000000000000000000000000000000000000815260040161128590612231565b60405180910390fd5b60003a905060015481116112d7576040517f08c379a00000000000000000000000000000000000000000000000000000000081526004016112ce9061229d565b60405180910390fd5b6000600154826112e79190611a76565b905060008360020154826112fb9190611d44565b9050600084600301548210611316578460030154905061131a565b8190505b600081866003015461132c9190611a76565b905060008111156113e95760008054906101000a900473ffffffffffffffffffffffffffffffffffffffff1673ffffffffffffffffffffffffffffffffffffffff166374e863ad8760010160009054906101000a900473ffffffffffffffffffffffffffffffffffffffff16836040518363ffffffff1660e01b81526004016113b6929190611bd7565b600060405180830381600087803b1580156113d057600080fd5b505af11580156113e4573d6000803e3d6000fd5b505050505b60008054906101000a900473ffffffffffffffffffffffffffffffffffffffff1673ffffffffffffffffffffffffffffffffffffffff16636680756633846040518363ffffffff1660e01b8152600401611444929190611bd7565b600060405180830381600087803b15801561145e57600080fd5b505af1158015611472573d6000803e3d6000fd5b50505050600086600201819055506000866003018190555050505050505050565b600360009054906101000a900473ffffffffffffffffffffffffffffffffffffffff1681565b6000600482815481106114cf576114ce611986565b5b9060005260206000209060040201905060008160020154036114f157506116d4565b60003a90506000600154826115069190611a76565b9050600083600201548261151a9190611d44565b90506000846003015482106115355784600301549050611539565b8190505b600081866003015461154b9190611a76565b905060008111156116085760008054906101000a900473ffffffffffffffffffffffffffffffffffffffff1673ffffffffffffffffffffffffffffffffffffffff166374e863ad8760010160009054906101000a900473ffffffffffffffffffffffffffffffffffffffff16836040518363ffffffff1660e01b81526004016115d5929190611bd7565b600060405180830381600087803b1580156115ef57600080fd5b505af1158015611603573d6000803e3d6000fd5b505050505b60008054906101000a900473ffffffffffffffffffffffffffffffffffffffff1673ffffffffffffffffffffffffffffffffffffffff1663668075668760000160009054906101000a900473ffffffffffffffffffffffffffffffffffffffff16846040518363ffffffff1660e01b8152600401611687929190611bd7565b600060405180830381600087803b1580156116a157600080fd5b505af11580156116b5573d6000803e3d6000fd5b5050505060008660020181905550600086600301819055505050505050505b50565b600073ffffffffffffffffffffffffffffffffffffffff82169050919050565b6000819050919050565b600061171c611717611712846116d7565b6116f7565b6116d7565b9050919050565b600061172e82611701565b9050919050565b600061174082611723565b9050919050565b61175081611735565b82525050565b600060208201905061176b6000830184611747565b92915050565b6000819050919050565b61178481611771565b82525050565b600060208201905061179f600083018461177b565b92915050565b600080fd5b6117b381611771565b81146117be57600080fd5b50565b6000813590506117d0816117aa565b92915050565b6000602082840312156117ec576117eb6117a5565b5b60006117fa848285016117c1565b91505092915050565b600061180e826116d7565b9050919050565b61181e81611803565b82525050565b60006080820190506118396000830187611815565b611846602083018661177b565b611853604083018561177b565b611860606083018461177b565b95945050505050565b600060808201905061187e6000830187611815565b61188b6020830186611815565b611898604083018561177b565b6118a5606083018461177b565b95945050505050565b600080604083850312156118c5576118c46117a5565b5b60006118d3858286016117c1565b92505060206118e4858286016117c1565b9150509250929050565b60006020820190506119036000830184611815565b92915050565b600082825260208201905092915050565b7f496e76616c6964206f6666657220696e64657800000000000000000000000000600082015250565b6000611950601383611909565b915061195b8261191a565b602082019050919050565b6000602082019050818103600083015261197f81611943565b9050919050565b7f4e487b7100000000000000000000000000000000000000000000000000000000600052603260045260246000fd5b7f4f6e6c79207468652073656c6c65722063616e2064656c65746520746869732060008201527f6f66666572000000000000000000000000000000000000000000000000000000602082015250565b6000611a11602583611909565b9150611a1c826119b5565b604082019050919050565b60006020820190508181036000830152611a4081611a04565b9050919050565b7f4e487b7100000000000000000000000000000000000000000000000000000000600052601160045260246000fd5b6000611a8182611771565b9150611a8c83611771565b9250828203905081811115611aa457611aa3611a47565b5b92915050565b7f4e487b7100000000000000000000000000000000000000000000000000000000600052603160045260246000fd5b7f4f6e6c79207468652061646d696e2063616e2063616c6c20746869732066756e60008201527f6374696f6e000000000000000000000000000000000000000000000000000000602082015250565b6000611b35602583611909565b9150611b4082611ad9565b604082019050919050565b60006020820190508181036000830152611b6481611b28565b9050919050565b7f4f7074696f6e20686173206e6f74206578706972656420796574000000000000600082015250565b6000611ba1601a83611909565b9150611bac82611b6b565b602082019050919050565b60006020820190508181036000830152611bd081611b94565b9050919050565b6000604082019050611bec6000830185611815565b611bf9602083018461177b565b9392505050565b7f4f7074696f6e2068617320657870697265640000000000000000000000000000600082015250565b6000611c36601283611909565b9150611c4182611c00565b602082019050919050565b60006020820190508181036000830152611c6581611c29565b9050919050565b7f4d7573742073656e642045544820746f20627579206f66666572730000000000600082015250565b6000611ca2601b83611909565b9150611cad82611c6c565b602082019050919050565b60006020820190508181036000830152611cd181611c95565b9050919050565b7f4f6666657220686173206e6f20756e697473206c656674000000000000000000600082015250565b6000611d0e601783611909565b9150611d1982611cd8565b602082019050919050565b60006020820190508181036000830152611d3d81611d01565b9050919050565b6000611d4f82611771565b9150611d5a83611771565b9250828202611d6881611771565b91508282048414831517611d7f57611d7e611a47565b5b5092915050565b7f4e487b7100000000000000000000000000000000000000000000000000000000600052601260045260246000fd5b6000611dc082611771565b9150611dcb83611771565b925082611ddb57611dda611d86565b5b828204905092915050565b6000611df182611771565b9150611dfc83611771565b9250828201905080821115611e1457611e13611a47565b5b92915050565b7f496e73756666696369656e74204554482073656e740000000000000000000000600082015250565b6000611e50601583611909565b9150611e5b82611e1a565b602082019050919050565b60006020820190508181036000830152611e7f81611e43565b9050919050565b600081519050611e95816117aa565b92915050565b600060208284031215611eb157611eb06117a5565b5b6000611ebf84828501611e86565b91505092915050565b7f496e73756666696369656e742073656c6c657220636f6c6c61746572616c0000600082015250565b6000611efe601e83611909565b9150611f0982611ec8565b602082019050919050565b60006020820190508181036000830152611f2d81611ef1565b9050919050565b600081905092915050565b50565b6000611f4f600083611f34565b9150611f5a82611f3f565b600082019050919050565b6000611f7082611f42565b9150819050919050565b7f4661696c656420746f207472616e73666572207072656d69756d20746f20736560008201527f6c6c657200000000000000000000000000000000000000000000000000000000602082015250565b6000611fd6602483611909565b9150611fe182611f7a565b604082019050919050565b6000602082019050818103600083015261200581611fc9565b9050919050565b7f416d6f756e74206d7573742062652067726561746572207468616e207a65726f600082015250565b6000612042602083611909565b915061204d8261200c565b602082019050919050565b6000602082019050818103600083015261207181612035565b9050919050565b7f5072696365206d7573742062652067726561746572207468616e207a65726f00600082015250565b60006120ae601f83611909565b91506120b982612078565b602082019050919050565b600060208201905081810360008301526120dd816120a1565b9050919050565b60006040820190506120f9600083018561177b565b612106602083018461177b565b9392505050565b7f496e76616c696420706f736974696f6e20696e64657800000000000000000000600082015250565b6000612143601683611909565b915061214e8261210d565b602082019050919050565b6000602082019050818103600083015261217281612136565b9050919050565b7f4f6e6c792062757965722063616e206578657263697365000000000000000000600082015250565b60006121af601783611909565b91506121ba82612179565b602082019050919050565b600060208201905081810360008301526121de816121a2565b9050919050565b7f506f736974696f6e20616c726561647920657865726369736564000000000000600082015250565b600061221b601a83611909565b9150612226826121e5565b602082019050919050565b6000602082019050818103600083015261224a8161220e565b9050919050565b7f4f7074696f6e206e6f742049544d000000000000000000000000000000000000600082015250565b6000612287600e83611909565b915061229282612251565b602082019050919050565b600060208201905081810360008301526122b68161227a565b905091905056fea2646970667358221220d16f8eb1b55bb986b5739fbeedea06d78ff820e309040ab3171eea697fda88e264736f6c634300081a0033a2646970667358221220672f90ee5ff0d202c602cb1d1434abfca98009c978eba4abe1ccf1280e08c5aa64736f6c634300081a0033608060405234801561001057600080fd5b50604051610f25380380610f25833981810160405281019061003291906100db565b806000806101000a81548173ffffffffffffffffffffffffffffffffffffffff021916908373ffffffffffffffffffffffffffffffffffffffff16021790555050610108565b600080fd5b600073ffffffffffffffffffffffffffffffffffffffff82169050919050565b60006100a88261007d565b9050919050565b6100b88161009d565b81146100c357600080fd5b50565b6000815190506100d5816100af565b92915050565b6000602082840312156100f1576100f0610078565b5b60006100ff848285016100c6565b91505092915050565b610e0e806101176000396000f3fe6080604052600436106100955760003560e01c80639b56d6c9116100595780639b56d6c9146101825780639e816999146101bf578063a5fdc5de146101c9578063c45a015514610206578063f30c2560146102315761009c565b80632365d6f0146100a15780632a50d2b7146100de5780636112fe2e14610107578063668075661461013057806374e863ad146101595761009c565b3661009c57005b600080fd5b3480156100ad57600080fd5b506100c860048036038101906100c39190610a26565b61025a565b6040516100d59190610a6e565b60405180910390f35b3480156100ea57600080fd5b5061010560048036038101906101009190610abf565b61027a565b005b34801561011357600080fd5b5061012e60048036038101906101299190610aff565b6103ae565b005b34801561013c57600080fd5b5061015760048036038101906101529190610abf565b61051e565b005b34801561016557600080fd5b50610180600480360381019061017b9190610abf565b610638565b005b34801561018e57600080fd5b506101a960048036038101906101a49190610a26565b61076c565b6040516101b69190610b3b565b60405180910390f35b6101c76107b5565b005b3480156101d557600080fd5b506101f060048036038101906101eb9190610a26565b61085b565b6040516101fd9190610b3b565b60405180910390f35b34801561021257600080fd5b5061021b610873565b6040516102289190610b65565b60405180910390f35b34801561023d57600080fd5b5061025860048036038101906102539190610a26565b610897565b005b60026020528060005260406000206000915054906101000a900460ff1681565b600260003373ffffffffffffffffffffffffffffffffffffffff1673ffffffffffffffffffffffffffffffffffffffff16815260200190815260200160002060009054906101000a900460ff16610306576040517f08c379a00000000000000000000000000000000000000000000000000000000081526004016102fd90610bdd565b60405180910390fd5b80600160008473ffffffffffffffffffffffffffffffffffffffff1673ffffffffffffffffffffffffffffffffffffffff16815260200190815260200160002060008282546103559190610c2c565b925050819055508173ffffffffffffffffffffffffffffffffffffffff167f4670b0eb4429de39e488890d9e0677bc98793658284c113375e1c296c2ad719f826040516103a29190610b3b565b60405180910390a25050565b80600160003373ffffffffffffffffffffffffffffffffffffffff1673ffffffffffffffffffffffffffffffffffffffff168152602001908152602001600020541015610430576040517f08c379a000000000000000000000000000000000000000000000000000000000815260040161042790610cac565b60405180910390fd5b80600160003373ffffffffffffffffffffffffffffffffffffffff1673ffffffffffffffffffffffffffffffffffffffff168152602001908152602001600020600082825461047f9190610c2c565b925050819055503373ffffffffffffffffffffffffffffffffffffffff166108fc829081150290604051600060405180830381858888f193505050501580156104cc573d6000803e3d6000fd5b503373ffffffffffffffffffffffffffffffffffffffff167fc30fcfbcaac9e0deffa719714eaa82396ff506a0d0d0eebe170830177288715d826040516105139190610b3b565b60405180910390a250565b600260003373ffffffffffffffffffffffffffffffffffffffff1673ffffffffffffffffffffffffffffffffffffffff16815260200190815260200160002060009054906101000a900460ff166105aa576040517f08c379a00000000000000000000000000000000000000000000000000000000081526004016105a190610bdd565b60405180910390fd5b804710156105ed576040517f08c379a00000000000000000000000000000000000000000000000000000000081526004016105e490610d18565b60405180910390fd5b8173ffffffffffffffffffffffffffffffffffffffff166108fc829081150290604051600060405180830381858888f19350505050158015610633573d6000803e3d6000fd5b505050565b600260003373ffffffffffffffffffffffffffffffffffffffff1673ffffffffffffffffffffffffffffffffffffffff16815260200190815260200160002060009054906101000a900460ff166106c4576040517f08c379a00000000000000000000000000000000000000000000000000000000081526004016106bb90610bdd565b60405180910390fd5b80600160008473ffffffffffffffffffffffffffffffffffffffff1673ffffffffffffffffffffffffffffffffffffffff16815260200190815260200160002060008282546107139190610d38565b925050819055508173ffffffffffffffffffffffffffffffffffffffff167f3db642b80902afb8ef23a2aeab4800b4b3717feb180705cf0a1c273ccc591c97826040516107609190610b3b565b60405180910390a25050565b6000600160008373ffffffffffffffffffffffffffffffffffffffff1673ffffffffffffffffffffffffffffffffffffffff168152602001908152602001600020549050919050565b34600160003373ffffffffffffffffffffffffffffffffffffffff1673ffffffffffffffffffffffffffffffffffffffff16815260200190815260200160002060008282546108049190610d38565b925050819055503373ffffffffffffffffffffffffffffffffffffffff167f7dba1be544024070cd5eebfa8bdd80a8b198cea8058c7d3cc1f8dd36e41ab2f7346040516108519190610b3b565b60405180910390a2565b60016020528060005260406000206000915090505481565b60008054906101000a900473ffffffffffffffffffffffffffffffffffffffff1681565b60008054906101000a900473ffffffffffffffffffffffffffffffffffffffff1673ffffffffffffffffffffffffffffffffffffffff163373ffffffffffffffffffffffffffffffffffffffff1614610925576040517f08c379a000000000000000000000000000000000000000000000000000000000815260040161091c90610db8565b60405180910390fd5b6001600260008373ffffffffffffffffffffffffffffffffffffffff1673ffffffffffffffffffffffffffffffffffffffff16815260200190815260200160002060006101000a81548160ff0219169083151502179055508073ffffffffffffffffffffffffffffffffffffffff167f03d0d031a62a8d632e89db7ddb4e703549d00ba59d2d764446394b41d00d5eea60405160405180910390a250565b600080fd5b600073ffffffffffffffffffffffffffffffffffffffff82169050919050565b60006109f3826109c8565b9050919050565b610a03816109e8565b8114610a0e57600080fd5b50565b600081359050610a20816109fa565b92915050565b600060208284031215610a3c57610a3b6109c3565b5b6000610a4a84828501610a11565b91505092915050565b60008115159050919050565b610a6881610a53565b82525050565b6000602082019050610a836000830184610a5f565b92915050565b6000819050919050565b610a9c81610a89565b8114610aa757600080fd5b50565b600081359050610ab981610a93565b92915050565b60008060408385031215610ad657610ad56109c3565b5b6000610ae485828601610a11565b9250506020610af585828601610aaa565b9150509250929050565b600060208284031215610b1557610b146109c3565b5b6000610b2384828501610aaa565b91505092915050565b610b3581610a89565b82525050565b6000602082019050610b506000830184610b2c565b92915050565b610b5f816109e8565b82525050565b6000602082019050610b7a6000830184610b56565b92915050565b600082825260208201905092915050565b7f4f6e6c792076616c6964206f7074696f6e732063616e2063616c6c0000000000600082015250565b6000610bc7601b83610b80565b9150610bd282610b91565b602082019050919050565b60006020820190508181036000830152610bf681610bba565b9050919050565b7f4e487b7100000000000000000000000000000000000000000000000000000000600052601160045260246000fd5b6000610c3782610a89565b9150610c4283610a89565b9250828203905081811115610c5a57610c59610bfd565b5b92915050565b7f496e73756666696369656e7420636f6c6c61746572616c000000000000000000600082015250565b6000610c96601783610b80565b9150610ca182610c60565b602082019050919050565b60006020820190508181036000830152610cc581610c89565b9050919050565b7f496e73756666696369656e7420636f6e74726163742062616c616e6365000000600082015250565b6000610d02601d83610b80565b9150610d0d82610ccc565b602082019050919050565b60006020820190508181036000830152610d3181610cf5565b9050919050565b6000610d4382610a89565b9150610d4e83610a89565b9250828201905080821115610d6657610d65610bfd565b5b92915050565b7f4f6e6c7920666163746f72792063616e2063616c6c0000000000000000000000600082015250565b6000610da2601583610b80565b9150610dad82610d6c565b602082019050919050565b60006020820190508181036000830152610dd181610d95565b905091905056fea2646970667358221220d258ac2fbe324aea18a569a8cc66d9f8af51373001a255768a4c3e73ff0e2e5364736f6c634300081a0033",
  "linkReferences": {},
  "deployedLinkReferences": {}
}